{
    "address": "0x69935BB71DB2b62113c833a6e56c526D894b2F61",
    "abi": [
        {
            "inputs": [],
            "stateMutability": "nonpayable",
            "type": "constructor"
        },
        {
            "inputs": [
                {
                    "internalType": "address",
                    "name": "target",
                    "type": "address"
                }
            ],
            "name": "AddressEmptyCode",
            "type": "error"
        },
        {
            "inputs": [],
            "name": "AmountExceedsTotalStaked",
            "type": "error"
        },
        {
            "inputs": [],
            "name": "AmountTooSmall",
            "type": "error"
        },
        {
            "inputs": [],
            "name": "BurnFailed",
            "type": "error"
        },
        {
            "inputs": [],
            "name": "CCIPBridgeAddressNotSet",
            "type": "error"
        },
        {
            "inputs": [],
            "name": "DappStakingAddressNotSet",
            "type": "error"
        },
        {
            "inputs": [
                {
                    "internalType": "address",
                    "name": "implementation",
                    "type": "address"
                }
            ],
            "name": "ERC1967InvalidImplementation",
            "type": "error"
        },
        {
            "inputs": [],
            "name": "ERC1967NonPayable",
            "type": "error"
        },
        {
            "inputs": [
                {
                    "internalType": "address",
                    "name": "spender",
                    "type": "address"
                },
                {
                    "internalType": "uint256",
                    "name": "allowance",
                    "type": "uint256"
                },
                {
                    "internalType": "uint256",
                    "name": "needed",
                    "type": "uint256"
                }
            ],
            "name": "ERC20InsufficientAllowance",
            "type": "error"
        },
        {
            "inputs": [
                {
                    "internalType": "address",
                    "name": "sender",
                    "type": "address"
                },
                {
                    "internalType": "uint256",
                    "name": "balance",
                    "type": "uint256"
                },
                {
                    "internalType": "uint256",
                    "name": "needed",
                    "type": "uint256"
                }
            ],
            "name": "ERC20InsufficientBalance",
            "type": "error"
        },
        {
            "inputs": [
                {
                    "internalType": "address",
                    "name": "approver",
                    "type": "address"
                }
            ],
            "name": "ERC20InvalidApprover",
            "type": "error"
        },
        {
            "inputs": [
                {
                    "internalType": "address",
                    "name": "receiver",
                    "type": "address"
                }
            ],
            "name": "ERC20InvalidReceiver",
            "type": "error"
        },
        {
            "inputs": [
                {
                    "internalType": "address",
                    "name": "sender",
                    "type": "address"
                }
            ],
            "name": "ERC20InvalidSender",
            "type": "error"
        },
        {
            "inputs": [
                {
                    "internalType": "address",
                    "name": "spender",
                    "type": "address"
                }
            ],
            "name": "ERC20InvalidSpender",
            "type": "error"
        },
        {
            "inputs": [
                {
                    "internalType": "address",
                    "name": "receiver",
                    "type": "address"
                },
                {
                    "internalType": "uint256",
                    "name": "assets",
                    "type": "uint256"
                },
                {
                    "internalType": "uint256",
                    "name": "max",
                    "type": "uint256"
                }
            ],
            "name": "ERC4626ExceededMaxDeposit",
            "type": "error"
        },
        {
            "inputs": [
                {
                    "internalType": "address",
                    "name": "receiver",
                    "type": "address"
                },
                {
                    "internalType": "uint256",
                    "name": "shares",
                    "type": "uint256"
                },
                {
                    "internalType": "uint256",
                    "name": "max",
                    "type": "uint256"
                }
            ],
            "name": "ERC4626ExceededMaxMint",
            "type": "error"
        },
        {
            "inputs": [
                {
                    "internalType": "address",
                    "name": "owner",
                    "type": "address"
                },
                {
                    "internalType": "uint256",
                    "name": "shares",
                    "type": "uint256"
                },
                {
                    "internalType": "uint256",
                    "name": "max",
                    "type": "uint256"
                }
            ],
            "name": "ERC4626ExceededMaxRedeem",
            "type": "error"
        },
        {
            "inputs": [
                {
                    "internalType": "address",
                    "name": "owner",
                    "type": "address"
                },
                {
                    "internalType": "uint256",
                    "name": "assets",
                    "type": "uint256"
                },
                {
                    "internalType": "uint256",
                    "name": "max",
                    "type": "uint256"
                }
            ],
            "name": "ERC4626ExceededMaxWithdraw",
            "type": "error"
        },
        {
            "inputs": [],
            "name": "EnforcedPause",
            "type": "error"
        },
        {
            "inputs": [],
            "name": "ExpectedPause",
            "type": "error"
        },
        {
            "inputs": [],
            "name": "FailedCall",
            "type": "error"
        },
        {
            "inputs": [],
            "name": "InsufficientASTRBalance",
            "type": "error"
        },
        {
            "inputs": [],
            "name": "InsufficientAmount",
            "type": "error"
        },
        {
            "inputs": [],
            "name": "InsufficientBalance",
            "type": "error"
        },
        {
            "inputs": [],
            "name": "InsufficientInstantUnstakeAmount",
            "type": "error"
        },
        {
            "inputs": [],
            "name": "InsufficientInstantWithdrawAmount",
            "type": "error"
        },
        {
            "inputs": [],
            "name": "InvalidAssetAddress",
            "type": "error"
        },
        {
            "inputs": [],
            "name": "InvalidCCIPWSTASTRAddress",
            "type": "error"
        },
        {
            "inputs": [],
            "name": "InvalidInitialization",
            "type": "error"
        },
        {
            "inputs": [],
            "name": "InvalidWastrAddress",
            "type": "error"
        },
        {
            "inputs": [],
            "name": "NoPendingUnstake",
            "type": "error"
        },
        {
            "inputs": [],
            "name": "NotDappStaking",
            "type": "error"
        },
        {
            "inputs": [],
            "name": "NotInitializing",
            "type": "error"
        },
        {
            "inputs": [],
            "name": "ReentrancyGuardReentrantCall",
            "type": "error"
        },
        {
            "inputs": [],
            "name": "STASTRWrapperAddressNotSet",
            "type": "error"
        },
        {
            "inputs": [
                {
                    "internalType": "address",
                    "name": "token",
                    "type": "address"
                }
            ],
            "name": "SafeERC20FailedOperation",
            "type": "error"
        },
        {
            "inputs": [],
            "name": "StillInLockPeriod",
            "type": "error"
        },
        {
            "inputs": [
                {
                    "internalType": "address",
                    "name": "to",
                    "type": "address"
                },
                {
                    "internalType": "uint256",
                    "name": "amount",
                    "type": "uint256"
                }
            ],
            "name": "TransferFailed",
            "type": "error"
        },
        {
            "inputs": [],
            "name": "UUPSUnauthorizedCallContext",
            "type": "error"
        },
        {
            "inputs": [
                {
                    "internalType": "bytes32",
                    "name": "slot",
                    "type": "bytes32"
                }
            ],
            "name": "UUPSUnsupportedProxiableUUID",
            "type": "error"
        },
        {
            "anonymous": false,
            "inputs": [
                {
                    "indexed": true,
                    "internalType": "address",
                    "name": "aclAddress",
                    "type": "address"
                }
            ],
            "name": "ACLSet",
            "type": "event"
        },
        {
            "anonymous": false,
            "inputs": [
                {
                    "indexed": true,
                    "internalType": "address",
                    "name": "owner",
                    "type": "address"
                },
                {
                    "indexed": true,
                    "internalType": "address",
                    "name": "spender",
                    "type": "address"
                },
                {
                    "indexed": false,
                    "internalType": "uint256",
                    "name": "value",
                    "type": "uint256"
                }
            ],
            "name": "Approval",
            "type": "event"
        },
        {
            "anonymous": false,
            "inputs": [
                {
                    "indexed": true,
                    "internalType": "address",
                    "name": "oldImplementation",
                    "type": "address"
                },
                {
                    "indexed": true,
                    "internalType": "address",
                    "name": "newImplementation",
                    "type": "address"
                }
            ],
            "name": "ContractUpgraded",
            "type": "event"
        },
        {
            "anonymous": false,
            "inputs": [
                {
                    "indexed": true,
                    "internalType": "address",
                    "name": "sender",
                    "type": "address"
                },
                {
                    "indexed": true,
                    "internalType": "address",
                    "name": "owner",
                    "type": "address"
                },
                {
                    "indexed": false,
                    "internalType": "uint256",
                    "name": "assets",
                    "type": "uint256"
                },
                {
                    "indexed": false,
                    "internalType": "uint256",
                    "name": "shares",
                    "type": "uint256"
                }
            ],
            "name": "Deposit",
            "type": "event"
        },
        {
            "anonymous": false,
            "inputs": [
                {
                    "indexed": false,
                    "internalType": "uint64",
                    "name": "version",
                    "type": "uint64"
                }
            ],
            "name": "Initialized",
            "type": "event"
        },
        {
            "anonymous": false,
            "inputs": [
                {
                    "indexed": false,
                    "internalType": "address",
                    "name": "account",
                    "type": "address"
                }
            ],
            "name": "Paused",
            "type": "event"
        },
        {
            "anonymous": false,
            "inputs": [
                {
                    "indexed": true,
                    "internalType": "address",
                    "name": "sender",
                    "type": "address"
                },
                {
                    "indexed": false,
                    "internalType": "uint256",
                    "name": "amount",
                    "type": "uint256"
                }
            ],
            "name": "RewardAdded",
            "type": "event"
        },
        {
            "anonymous": false,
            "inputs": [
                {
                    "indexed": true,
                    "internalType": "address",
                    "name": "dappStaking",
                    "type": "address"
                },
                {
                    "indexed": false,
                    "internalType": "uint256",
                    "name": "amount",
                    "type": "uint256"
                }
            ],
            "name": "StakingReturned",
            "type": "event"
        },
        {
            "anonymous": false,
            "inputs": [
                {
                    "indexed": true,
                    "internalType": "address",
                    "name": "dappStaking",
                    "type": "address"
                },
                {
                    "indexed": false,
                    "internalType": "uint256",
                    "name": "amount",
                    "type": "uint256"
                }
            ],
            "name": "StakingTransferred",
            "type": "event"
        },
        {
            "anonymous": false,
            "inputs": [
                {
                    "indexed": true,
                    "internalType": "address",
                    "name": "from",
                    "type": "address"
                },
                {
                    "indexed": true,
                    "internalType": "address",
                    "name": "to",
                    "type": "address"
                },
                {
                    "indexed": false,
                    "internalType": "uint256",
                    "name": "value",
                    "type": "uint256"
                }
            ],
            "name": "Transfer",
            "type": "event"
        },
        {
            "anonymous": false,
            "inputs": [
                {
                    "indexed": false,
                    "internalType": "address",
                    "name": "account",
                    "type": "address"
                }
            ],
            "name": "Unpaused",
            "type": "event"
        },
        {
            "anonymous": false,
            "inputs": [
                {
                    "indexed": true,
                    "internalType": "address",
                    "name": "sender",
                    "type": "address"
                },
                {
                    "indexed": false,
                    "internalType": "uint256",
                    "name": "nonce",
                    "type": "uint256"
                },
                {
                    "indexed": false,
                    "internalType": "uint8",
                    "name": "withdrawType",
                    "type": "uint8"
                },
                {
                    "indexed": false,
                    "internalType": "uint256",
                    "name": "ccipwstASTRAmount",
                    "type": "uint256"
                }
            ],
            "name": "UnstakeRequested",
            "type": "event"
        },
        {
            "anonymous": false,
            "inputs": [
                {
                    "indexed": true,
                    "internalType": "address",
                    "name": "implementation",
                    "type": "address"
                }
            ],
            "name": "Upgraded",
            "type": "event"
        },
        {
            "anonymous": false,
            "inputs": [
                {
                    "indexed": true,
                    "internalType": "address",
                    "name": "sender",
                    "type": "address"
                },
                {
                    "indexed": true,
                    "internalType": "address",
                    "name": "receiver",
                    "type": "address"
                },
                {
                    "indexed": true,
                    "internalType": "address",
                    "name": "owner",
                    "type": "address"
                },
                {
                    "indexed": false,
                    "internalType": "uint256",
                    "name": "assets",
                    "type": "uint256"
                },
                {
                    "indexed": false,
                    "internalType": "uint256",
                    "name": "shares",
                    "type": "uint256"
                }
            ],
            "name": "Withdraw",
            "type": "event"
        },
        {
            "anonymous": false,
            "inputs": [
                {
                    "indexed": true,
                    "internalType": "address",
                    "name": "caller",
                    "type": "address"
                },
                {
                    "indexed": true,
                    "internalType": "address",
                    "name": "receiver",
                    "type": "address"
                },
                {
                    "indexed": false,
                    "internalType": "uint256",
                    "name": "amount",
                    "type": "uint256"
                },
                {
                    "indexed": false,
                    "internalType": "uint256",
                    "name": "nonce",
                    "type": "uint256"
                }
            ],
            "name": "WithdrawnASTR",
            "type": "event"
        },
        {
            "inputs": [],
            "name": "UPGRADE_INTERFACE_VERSION",
            "outputs": [
                {
                    "internalType": "string",
                    "name": "",
                    "type": "string"
                }
            ],
            "stateMutability": "view",
            "type": "function"
        },
        {
            "inputs": [],
            "name": "_ACL",
            "outputs": [
                {
                    "internalType": "address",
                    "name": "",
                    "type": "address"
                }
            ],
            "stateMutability": "view",
            "type": "function"
        },
        {
            "inputs": [
                {
                    "internalType": "uint256",
                    "name": "amount",
                    "type": "uint256"
                }
            ],
            "name": "addReward",
            "outputs": [],
            "stateMutability": "nonpayable",
            "type": "function"
        },
        {
            "inputs": [],
            "name": "addressProvider",
            "outputs": [
                {
                    "internalType": "contract IAddressProvider",
                    "name": "",
                    "type": "address"
                }
            ],
            "stateMutability": "view",
            "type": "function"
        },
        {
            "inputs": [
                {
                    "internalType": "address",
                    "name": "owner",
                    "type": "address"
                },
                {
                    "internalType": "address",
                    "name": "spender",
                    "type": "address"
                }
            ],
            "name": "allowance",
            "outputs": [
                {
                    "internalType": "uint256",
                    "name": "",
                    "type": "uint256"
                }
            ],
            "stateMutability": "view",
            "type": "function"
        },
        {
            "inputs": [
                {
                    "internalType": "address",
                    "name": "spender",
                    "type": "address"
                },
                {
                    "internalType": "uint256",
                    "name": "value",
                    "type": "uint256"
                }
            ],
            "name": "approve",
            "outputs": [
                {
                    "internalType": "bool",
                    "name": "",
                    "type": "bool"
                }
            ],
            "stateMutability": "nonpayable",
            "type": "function"
        },
        {
            "inputs": [],
            "name": "asset",
            "outputs": [
                {
                    "internalType": "address",
                    "name": "",
                    "type": "address"
                }
            ],
            "stateMutability": "view",
            "type": "function"
        },
        {
            "inputs": [
                {
                    "internalType": "address",
                    "name": "account",
                    "type": "address"
                }
            ],
            "name": "balanceOf",
            "outputs": [
                {
                    "internalType": "uint256",
                    "name": "",
                    "type": "uint256"
                }
            ],
            "stateMutability": "view",
            "type": "function"
        },
        {
            "inputs": [],
            "name": "ccipBridge",
            "outputs": [
                {
                    "internalType": "contract ICCIPBridge",
                    "name": "",
                    "type": "address"
                }
            ],
            "stateMutability": "view",
            "type": "function"
        },
        {
            "inputs": [],
            "name": "ccipFee",
            "outputs": [
                {
                    "internalType": "uint256",
                    "name": "",
                    "type": "uint256"
                }
            ],
            "stateMutability": "view",
            "type": "function"
        },
        {
            "inputs": [],
            "name": "ccipwstASTR",
            "outputs": [
                {
                    "internalType": "address",
                    "name": "",
                    "type": "address"
                }
            ],
            "stateMutability": "view",
            "type": "function"
        },
        {
            "inputs": [
                {
                    "internalType": "uint256",
                    "name": "shares",
                    "type": "uint256"
                }
            ],
            "name": "convertToAssets",
            "outputs": [
                {
                    "internalType": "uint256",
                    "name": "",
                    "type": "uint256"
                }
            ],
            "stateMutability": "view",
            "type": "function"
        },
        {
            "inputs": [
                {
                    "internalType": "uint256",
                    "name": "assets",
                    "type": "uint256"
                }
            ],
            "name": "convertToShares",
            "outputs": [
                {
                    "internalType": "uint256",
                    "name": "",
                    "type": "uint256"
                }
            ],
            "stateMutability": "view",
            "type": "function"
        },
        {
            "inputs": [],
            "name": "dASTR",
            "outputs": [
                {
                    "internalType": "address",
                    "name": "",
                    "type": "address"
                }
            ],
            "stateMutability": "view",
            "type": "function"
        },
        {
            "inputs": [],
            "name": "daoVault",
            "outputs": [
                {
                    "internalType": "address",
                    "name": "",
                    "type": "address"
                }
            ],
            "stateMutability": "view",
            "type": "function"
        },
        {
            "inputs": [],
            "name": "dappStaking",
            "outputs": [
                {
                    "internalType": "contract IDappStakingManager",
                    "name": "",
                    "type": "address"
                }
            ],
            "stateMutability": "view",
            "type": "function"
        },
        {
            "inputs": [],
            "name": "decimals",
            "outputs": [
                {
                    "internalType": "uint8",
                    "name": "",
                    "type": "uint8"
                }
            ],
            "stateMutability": "view",
            "type": "function"
        },
        {
            "inputs": [
                {
                    "internalType": "uint256",
                    "name": "assets",
                    "type": "uint256"
                },
                {
                    "internalType": "address",
                    "name": "receiver",
                    "type": "address"
                }
            ],
            "name": "deposit",
            "outputs": [
                {
                    "internalType": "uint256",
                    "name": "",
                    "type": "uint256"
                }
            ],
            "stateMutability": "nonpayable",
            "type": "function"
        },
        {
            "inputs": [
                {
                    "internalType": "address",
                    "name": "receiver",
                    "type": "address"
                }
            ],
            "name": "depositASTR",
            "outputs": [
                {
                    "internalType": "uint256",
                    "name": "",
                    "type": "uint256"
                }
            ],
            "stateMutability": "payable",
            "type": "function"
        },
        {
            "inputs": [
                {
                    "internalType": "address",
                    "name": "sender",
                    "type": "address"
                },
                {
                    "internalType": "uint256",
                    "name": "amount",
                    "type": "uint256"
                }
            ],
            "name": "depositASTRCCIP",
            "outputs": [
                {
                    "internalType": "uint256",
                    "name": "",
                    "type": "uint256"
                }
            ],
            "stateMutability": "payable",
            "type": "function"
        },
        {
            "inputs": [],
            "name": "getInstantUnstakeAmount",
            "outputs": [
                {
                    "internalType": "uint256",
                    "name": "",
                    "type": "uint256"
                }
            ],
            "stateMutability": "view",
            "type": "function"
        },
        {
            "inputs": [],
            "name": "initAddress",
            "outputs": [],
            "stateMutability": "nonpayable",
            "type": "function"
        },
        {
            "inputs": [
                {
                    "internalType": "address",
                    "name": "_asset_",
                    "type": "address"
                },
                {
                    "internalType": "string",
                    "name": "name_",
                    "type": "string"
                },
                {
                    "internalType": "string",
                    "name": "symbol_",
                    "type": "string"
                },
                {
                    "internalType": "address",
                    "name": "_ccipwstASTR",
                    "type": "address"
                },
                {
                    "internalType": "address",
                    "name": "_wastr",
                    "type": "address"
                },
                {
                    "internalType": "address",
                    "name": "_aclAddress",
                    "type": "address"
                },
                {
                    "internalType": "address",
                    "name": "_addressProviderAddress",
                    "type": "address"
                },
                {
                    "internalType": "uint256",
                    "name": "_instantFee",
                    "type": "uint256"
                },
                {
                    "internalType": "uint256",
                    "name": "_minimumStakeAmount",
                    "type": "uint256"
                }
            ],
            "name": "initialize",
            "outputs": [],
            "stateMutability": "nonpayable",
            "type": "function"
        },
        {
            "inputs": [],
            "name": "instantFee",
            "outputs": [
                {
                    "internalType": "uint256",
                    "name": "",
                    "type": "uint256"
                }
            ],
            "stateMutability": "view",
            "type": "function"
        },
        {
            "inputs": [],
            "name": "instantUnstakeAmount",
            "outputs": [
                {
                    "internalType": "uint256",
                    "name": "",
                    "type": "uint256"
                }
            ],
            "stateMutability": "view",
            "type": "function"
        },
        {
            "inputs": [
                {
                    "internalType": "uint256",
                    "name": "amount",
                    "type": "uint256"
                }
            ],
            "name": "instantWithdraw",
            "outputs": [
                {
                    "internalType": "uint256",
                    "name": "",
                    "type": "uint256"
                }
            ],
            "stateMutability": "nonpayable",
            "type": "function"
        },
        {
            "inputs": [
                {
                    "internalType": "address",
                    "name": "sender",
                    "type": "address"
                },
                {
                    "internalType": "uint256",
                    "name": "amount",
                    "type": "uint256"
                }
            ],
            "name": "instantWithdrawCCIP",
            "outputs": [
                {
                    "internalType": "uint256",
                    "name": "",
                    "type": "uint256"
                }
            ],
            "stateMutability": "nonpayable",
            "type": "function"
        },
        {
            "inputs": [],
            "name": "l2CCIP",
            "outputs": [
                {
                    "internalType": "uint64",
                    "name": "chainSelector",
                    "type": "uint64"
                },
                {
                    "internalType": "address",
                    "name": "router",
                    "type": "address"
                },
                {
                    "internalType": "address",
                    "name": "rmn",
                    "type": "address"
                },
                {
                    "internalType": "address",
                    "name": "tokenAdminRegistry",
                    "type": "address"
                },
                {
                    "internalType": "address",
                    "name": "registryModuleOwner",
                    "type": "address"
                },
                {
                    "internalType": "address",
                    "name": "link",
                    "type": "address"
                },
                {
                    "internalType": "address",
                    "name": "wastr",
                    "type": "address"
                }
            ],
            "stateMutability": "view",
            "type": "function"
        },
        {
            "inputs": [
                {
                    "internalType": "address",
                    "name": "",
                    "type": "address"
                }
            ],
            "name": "maxDeposit",
            "outputs": [
                {
                    "internalType": "uint256",
                    "name": "",
                    "type": "uint256"
                }
            ],
            "stateMutability": "view",
            "type": "function"
        },
        {
            "inputs": [
                {
                    "internalType": "address",
                    "name": "",
                    "type": "address"
                }
            ],
            "name": "maxMint",
            "outputs": [
                {
                    "internalType": "uint256",
                    "name": "",
                    "type": "uint256"
                }
            ],
            "stateMutability": "view",
            "type": "function"
        },
        {
            "inputs": [
                {
                    "internalType": "address",
                    "name": "owner",
                    "type": "address"
                }
            ],
            "name": "maxRedeem",
            "outputs": [
                {
                    "internalType": "uint256",
                    "name": "",
                    "type": "uint256"
                }
            ],
            "stateMutability": "view",
            "type": "function"
        },
        {
            "inputs": [
                {
                    "internalType": "address",
                    "name": "owner",
                    "type": "address"
                }
            ],
            "name": "maxWithdraw",
            "outputs": [
                {
                    "internalType": "uint256",
                    "name": "",
                    "type": "uint256"
                }
            ],
            "stateMutability": "view",
            "type": "function"
        },
        {
            "inputs": [],
            "name": "minimumStakeAmount",
            "outputs": [
                {
                    "internalType": "uint256",
                    "name": "",
                    "type": "uint256"
                }
            ],
            "stateMutability": "view",
            "type": "function"
        },
        {
            "inputs": [
                {
                    "internalType": "uint256",
                    "name": "shares",
                    "type": "uint256"
                },
                {
                    "internalType": "address",
                    "name": "receiver",
                    "type": "address"
                }
            ],
            "name": "mint",
            "outputs": [
                {
                    "internalType": "uint256",
                    "name": "",
                    "type": "uint256"
                }
            ],
            "stateMutability": "nonpayable",
            "type": "function"
        },
        {
            "inputs": [],
            "name": "name",
            "outputs": [
                {
                    "internalType": "string",
                    "name": "",
                    "type": "string"
                }
            ],
            "stateMutability": "view",
            "type": "function"
        },
        {
            "inputs": [
                {
                    "internalType": "address",
                    "name": "",
                    "type": "address"
                }
            ],
            "name": "nonces",
            "outputs": [
                {
                    "internalType": "uint256",
                    "name": "",
                    "type": "uint256"
                }
            ],
            "stateMutability": "view",
            "type": "function"
        },
        {
            "inputs": [],
            "name": "pause",
            "outputs": [],
            "stateMutability": "nonpayable",
            "type": "function"
        },
        {
            "inputs": [],
            "name": "paused",
            "outputs": [
                {
                    "internalType": "bool",
                    "name": "",
                    "type": "bool"
                }
            ],
            "stateMutability": "view",
            "type": "function"
        },
        {
            "inputs": [
                {
                    "internalType": "address",
                    "name": "",
                    "type": "address"
                },
                {
                    "internalType": "uint256",
                    "name": "",
                    "type": "uint256"
                }
            ],
            "name": "pendingUnstake",
            "outputs": [
                {
                    "internalType": "uint256",
                    "name": "",
                    "type": "uint256"
                }
            ],
            "stateMutability": "view",
            "type": "function"
        },
        {
            "inputs": [
                {
                    "internalType": "address",
                    "name": "",
                    "type": "address"
                },
                {
                    "internalType": "uint256",
                    "name": "",
                    "type": "uint256"
                }
            ],
            "name": "pendingUnstakeAt",
            "outputs": [
                {
                    "internalType": "uint256",
                    "name": "",
                    "type": "uint256"
                }
            ],
            "stateMutability": "view",
            "type": "function"
        },
        {
            "inputs": [
                {
                    "internalType": "address",
                    "name": "",
                    "type": "address"
                },
                {
                    "internalType": "uint256",
                    "name": "",
                    "type": "uint256"
                }
            ],
            "name": "pendingUnstakeChain",
            "outputs": [
                {
                    "internalType": "uint256",
                    "name": "",
                    "type": "uint256"
                }
            ],
            "stateMutability": "view",
            "type": "function"
        },
        {
            "inputs": [
                {
                    "internalType": "uint256",
                    "name": "assets",
                    "type": "uint256"
                }
            ],
            "name": "previewDeposit",
            "outputs": [
                {
                    "internalType": "uint256",
                    "name": "",
                    "type": "uint256"
                }
            ],
            "stateMutability": "view",
            "type": "function"
        },
        {
            "inputs": [
                {
                    "internalType": "uint256",
                    "name": "shares",
                    "type": "uint256"
                }
            ],
            "name": "previewMint",
            "outputs": [
                {
                    "internalType": "uint256",
                    "name": "",
                    "type": "uint256"
                }
            ],
            "stateMutability": "view",
            "type": "function"
        },
        {
            "inputs": [
                {
                    "internalType": "uint256",
                    "name": "shares",
                    "type": "uint256"
                }
            ],
            "name": "previewRedeem",
            "outputs": [
                {
                    "internalType": "uint256",
                    "name": "",
                    "type": "uint256"
                }
            ],
            "stateMutability": "view",
            "type": "function"
        },
        {
            "inputs": [
                {
                    "internalType": "uint256",
                    "name": "assets",
                    "type": "uint256"
                }
            ],
            "name": "previewWithdraw",
            "outputs": [
                {
                    "internalType": "uint256",
                    "name": "",
                    "type": "uint256"
                }
            ],
            "stateMutability": "view",
            "type": "function"
        },
        {
            "inputs": [],
            "name": "proxiableUUID",
            "outputs": [
                {
                    "internalType": "bytes32",
                    "name": "",
                    "type": "bytes32"
                }
            ],
            "stateMutability": "view",
            "type": "function"
        },
        {
            "inputs": [
                {
                    "internalType": "uint256",
                    "name": "shares",
                    "type": "uint256"
                },
                {
                    "internalType": "address",
                    "name": "receiver",
                    "type": "address"
                },
                {
                    "internalType": "address",
                    "name": "owner",
                    "type": "address"
                }
            ],
            "name": "redeem",
            "outputs": [
                {
                    "internalType": "uint256",
                    "name": "",
                    "type": "uint256"
                }
            ],
            "stateMutability": "nonpayable",
            "type": "function"
        },
        {
            "inputs": [
                {
                    "internalType": "uint256",
                    "name": "wstASTRAmount",
                    "type": "uint256"
                }
            ],
            "name": "requestUnstake",
            "outputs": [
                {
                    "internalType": "uint256",
                    "name": "",
                    "type": "uint256"
                }
            ],
            "stateMutability": "nonpayable",
            "type": "function"
        },
        {
            "inputs": [
                {
                    "internalType": "address",
                    "name": "sender",
                    "type": "address"
                },
                {
                    "internalType": "uint256",
                    "name": "ccipwstASTRAmount",
                    "type": "uint256"
                }
            ],
            "name": "requestUnstakeCCIP",
            "outputs": [
                {
                    "internalType": "uint256",
                    "name": "",
                    "type": "uint256"
                }
            ],
            "stateMutability": "nonpayable",
            "type": "function"
        },
        {
            "inputs": [
                {
                    "internalType": "uint256",
                    "name": "_ccipFee",
                    "type": "uint256"
                }
            ],
            "name": "setCCIPFee",
            "outputs": [],
            "stateMutability": "nonpayable",
            "type": "function"
        },
        {
            "inputs": [
                {
                    "internalType": "uint256",
                    "name": "_instantFee",
                    "type": "uint256"
                }
            ],
            "name": "setInstantFee",
            "outputs": [],
            "stateMutability": "nonpayable",
            "type": "function"
        },
        {
            "inputs": [
                {
                    "components": [
                        {
                            "internalType": "uint64",
                            "name": "chainSelector",
                            "type": "uint64"
                        },
                        {
                            "internalType": "address",
                            "name": "router",
                            "type": "address"
                        },
                        {
                            "internalType": "address",
                            "name": "rmn",
                            "type": "address"
                        },
                        {
                            "internalType": "address",
                            "name": "tokenAdminRegistry",
                            "type": "address"
                        },
                        {
                            "internalType": "address",
                            "name": "registryModuleOwner",
                            "type": "address"
                        },
                        {
                            "internalType": "address",
                            "name": "link",
                            "type": "address"
                        },
                        {
                            "internalType": "address",
                            "name": "wastr",
                            "type": "address"
                        }
                    ],
                    "internalType": "struct Vault.L2CCIP",
                    "name": "_l2CCIP",
                    "type": "tuple"
                }
            ],
            "name": "setL2CCIP",
            "outputs": [],
            "stateMutability": "nonpayable",
            "type": "function"
        },
        {
            "inputs": [
                {
                    "internalType": "uint256",
                    "name": "_unlockPeriod",
                    "type": "uint256"
                }
            ],
            "name": "setUnlockPeriod",
            "outputs": [],
            "stateMutability": "nonpayable",
            "type": "function"
        },
        {
            "inputs": [],
            "name": "stASTRWrapper",
            "outputs": [
                {
                    "internalType": "contract ISTASTRWrapper",
                    "name": "",
                    "type": "address"
                }
            ],
            "stateMutability": "view",
            "type": "function"
        },
        {
            "inputs": [
                {
                    "internalType": "uint256",
                    "name": "amount",
                    "type": "uint256"
                },
                {
                    "internalType": "uint256",
                    "name": "redeemAmount",
                    "type": "uint256"
                }
            ],
            "name": "stakingTransferIn",
            "outputs": [
                {
                    "internalType": "uint256",
                    "name": "",
                    "type": "uint256"
                }
            ],
            "stateMutability": "payable",
            "type": "function"
        },
        {
            "inputs": [],
            "name": "symbol",
            "outputs": [
                {
                    "internalType": "string",
                    "name": "",
                    "type": "string"
                }
            ],
            "stateMutability": "view",
            "type": "function"
        },
        {
            "inputs": [],
            "name": "totalAssets",
            "outputs": [
                {
                    "internalType": "uint256",
                    "name": "",
                    "type": "uint256"
                }
            ],
            "stateMutability": "view",
            "type": "function"
        },
        {
            "inputs": [],
            "name": "totalStake",
            "outputs": [
                {
                    "internalType": "uint256",
                    "name": "",
                    "type": "uint256"
                }
            ],
            "stateMutability": "view",
            "type": "function"
        },
        {
            "inputs": [],
            "name": "totalStaked",
            "outputs": [
                {
                    "internalType": "uint256",
                    "name": "",
                    "type": "uint256"
                }
            ],
            "stateMutability": "view",
            "type": "function"
        },
        {
            "inputs": [],
            "name": "totalSupply",
            "outputs": [
                {
                    "internalType": "uint256",
                    "name": "",
                    "type": "uint256"
                }
            ],
            "stateMutability": "view",
            "type": "function"
        },
        {
            "inputs": [
                {
                    "internalType": "address",
                    "name": "to",
                    "type": "address"
                },
                {
                    "internalType": "uint256",
                    "name": "value",
                    "type": "uint256"
                }
            ],
            "name": "transfer",
            "outputs": [
                {
                    "internalType": "bool",
                    "name": "",
                    "type": "bool"
                }
            ],
            "stateMutability": "nonpayable",
            "type": "function"
        },
        {
            "inputs": [
                {
                    "internalType": "address",
                    "name": "from",
                    "type": "address"
                },
                {
                    "internalType": "address",
                    "name": "to",
                    "type": "address"
                },
                {
                    "internalType": "uint256",
                    "name": "value",
                    "type": "uint256"
                }
            ],
            "name": "transferFrom",
            "outputs": [
                {
                    "internalType": "bool",
                    "name": "",
                    "type": "bool"
                }
            ],
            "stateMutability": "nonpayable",
            "type": "function"
        },
        {
            "inputs": [],
            "name": "underlying",
            "outputs": [
                {
                    "internalType": "contract IERC20",
                    "name": "",
                    "type": "address"
                }
            ],
            "stateMutability": "view",
            "type": "function"
        },
        {
            "inputs": [],
            "name": "unlockPeriod",
            "outputs": [
                {
                    "internalType": "uint256",
                    "name": "",
                    "type": "uint256"
                }
            ],
            "stateMutability": "view",
            "type": "function"
        },
        {
            "inputs": [],
            "name": "unpause",
            "outputs": [],
            "stateMutability": "nonpayable",
            "type": "function"
        },
        {
            "inputs": [
                {
                    "internalType": "uint256",
                    "name": "_minimumStakeAmount",
                    "type": "uint256"
                }
            ],
            "name": "updateMinimumStakeAmount",
            "outputs": [],
            "stateMutability": "nonpayable",
            "type": "function"
        },
        {
            "inputs": [
                {
                    "internalType": "uint256",
                    "name": "_withdrawFee",
                    "type": "uint256"
                }
            ],
            "name": "updateWithdrawFee",
            "outputs": [],
            "stateMutability": "nonpayable",
            "type": "function"
        },
        {
            "inputs": [
                {
                    "internalType": "address",
                    "name": "newImplementation",
                    "type": "address"
                },
                {
                    "internalType": "bytes",
                    "name": "data",
                    "type": "bytes"
                }
            ],
            "name": "upgradeToAndCall",
            "outputs": [],
            "stateMutability": "payable",
            "type": "function"
        },
        {
            "inputs": [],
            "name": "wastr",
            "outputs": [
                {
                    "internalType": "address",
                    "name": "",
                    "type": "address"
                }
            ],
            "stateMutability": "view",
            "type": "function"
        },
        {
            "inputs": [
                {
                    "internalType": "uint256",
                    "name": "assets",
                    "type": "uint256"
                },
                {
                    "internalType": "address",
                    "name": "receiver",
                    "type": "address"
                },
                {
                    "internalType": "address",
                    "name": "owner",
                    "type": "address"
                }
            ],
            "name": "withdraw",
            "outputs": [
                {
                    "internalType": "uint256",
                    "name": "",
                    "type": "uint256"
                }
            ],
            "stateMutability": "nonpayable",
            "type": "function"
        },
        {
            "inputs": [
                {
                    "internalType": "address",
                    "name": "receiver",
                    "type": "address"
                },
                {
                    "internalType": "uint256",
                    "name": "nonce",
                    "type": "uint256"
                }
            ],
            "name": "withdrawASTR",
            "outputs": [
                {
                    "internalType": "uint256",
                    "name": "",
                    "type": "uint256"
                }
            ],
            "stateMutability": "nonpayable",
            "type": "function"
        },
        {
            "inputs": [
                {
                    "internalType": "address",
                    "name": "toAddress",
                    "type": "address"
                },
                {
                    "internalType": "uint256",
                    "name": "nonce",
                    "type": "uint256"
                }
            ],
            "name": "withdrawASTRCCIP",
            "outputs": [
                {
                    "internalType": "uint256",
                    "name": "",
                    "type": "uint256"
                }
            ],
            "stateMutability": "nonpayable",
            "type": "function"
        },
        {
            "inputs": [],
            "name": "withdrawFee",
            "outputs": [
                {
                    "internalType": "uint256",
                    "name": "",
                    "type": "uint256"
                }
            ],
            "stateMutability": "view",
            "type": "function"
        },
        {
            "stateMutability": "payable",
            "type": "receive"
        }
    ],
    "transactionHash": "0xa1251947d0f1b88cb4d079c5709273d6e2b9a1aa2e957a1c80e758c90794aeb5",
    "args": [],
    "numDeployments": 4,
    "solcInputHash": "9f0f4b6e0aedfc402ed72e0d505fe063",
    "bytecode": "0x60a0604052306080523480156200001557600080fd5b50620000206200003a565b6200002a6200003a565b620000346200003a565b620000ee565b7ff0c57e16840df040f15088dc2f81fe391c3923bec73e23a9662efc9c229c6a00805468010000000000000000900460ff16156200008b5760405163f92ee8a960e01b815260040160405180910390fd5b80546001600160401b0390811614620000eb5780546001600160401b0319166001600160401b0390811782556040519081527fc7f505b2f371ae2175ee4913f4499e1f2633a7b5936321eed1cdaeb6115181d29060200160405180910390a15b50565b608051615dc962000118600039600081816142af015281816142d801526145d10152615dc96000f3fe60806040526004361061036a5760003560e01c806374de4ec4116101c9578063b9eb308b116100fe578063b9eb308b14610a2b578063ba08765214610a4b578063bb274a2414610a6b578063bde9aecc14610a8b578063c47d51be14610ac3578063c63d75b6146105c4578063c6e6f59214610ad9578063c9f72f0214610af9578063caf2027d14610b19578063ce96cb7714610b39578063d905777e14610b59578063daf635de14610b79578063dd62ed3e14610b99578063e941fa7814610bb9578063ea86355d14610bcf578063ec62066b14610bef578063ef8b30f714610ad9578063fa64373314610c27578063fd92bff214610c4757600080fd5b806374de4ec41461081c578063775394171461083c5780637ba25a951461085c5780637be1e7471461087c5780637ecebe0014610891578063817b1cd2146108be5780638456cb59146108d357806386e3c260146108e857806389e613cf146109085780638b0e9f3f1461091b57806394bf804d1461093057806395d89b4114610950578063a9059cbb14610965578063ab8556dc14610985578063ad3cb1cc1461099a578063ad9e5649146109cb578063b3d7f6b9146109eb578063b460af9414610a0b57600080fd5b80633f4ba83a1161029f5780633f4ba83a146105af578063402d267d146105c4578063419dce05146105e45780634cdad506146103c05780634f0285ff146106885780634f1ef2861461069b5780635034d9d2146106ae57806352d1902d146106ce57806354579aa2146106e357806357d212fd1461070357806358ad9929146107235780635903bd6c1461075b5780635c975abb1461077b5780636b036f45146107905780636e553f65146107a65780636f307dc3146107c657806370a08231146107e657806372e145841461080657600080fd5b806301e1d1141461037657806306fdde031461039e57806307a2d13a146103c0578063095ea7b3146103e05780630a28a477146104105780630ab2a9a21461043057806318160ddd1461045d57806320d3a0b414610472578063230957211461048857806323b872dd146104a85780632954018c146104c8578063297c5f04146104e8578063313ce5671461050857806334e5ca791461052f578063358544981461054f57806338d52e0f1461056257806338fd1400146105775780633d0ddf841461058d57600080fd5b3661037157005b600080fd5b34801561038257600080fd5b5061038b610c67565b6040519081526020015b60405180910390f35b3480156103aa57600080fd5b506103b3610ce2565b60405161039591906152c3565b3480156103cc57600080fd5b5061038b6103db3660046152d6565b610d83565b3480156103ec57600080fd5b506104006103fb36600461530f565b610d96565b6040519015158152602001610395565b34801561041c57600080fd5b5061038b61042b3660046152d6565b610dae565b34801561043c57600080fd5b50606654610450906001600160a01b031681565b604051610395919061533b565b34801561046957600080fd5b5061038b610dbb565b34801561047e57600080fd5b5061038b606e5481565b34801561049457600080fd5b5061038b6104a33660046152d6565b610dd0565b3480156104b457600080fd5b506104006104c336600461534f565b611066565b3480156104d457600080fd5b50600054610450906001600160a01b031681565b3480156104f457600080fd5b50603254610450906001600160a01b031681565b34801561051457600080fd5b5061051d61108c565b60405160ff9091168152602001610395565b34801561053b57600080fd5b50607554610450906001600160a01b031681565b61038b61055d366004615390565b6110b7565b34801561056e57600080fd5b5061045061127a565b34801561058357600080fd5b5061038b607b5481565b34801561059957600080fd5b506105ad6105a83660046152d6565b611295565b005b3480156105bb57600080fd5b506105ad611343565b3480156105d057600080fd5b5061038b6105df366004615390565b6113f6565b3480156105f057600080fd5b50606f54607054607154607254607354607454610639956001600160401b038116956001600160a01b03600160401b909204821695908216949082169390821692908216911687565b604080516001600160401b0390981688526001600160a01b03968716602089015294861694870194909452918416606086015283166080850152821660a08401521660c082015260e001610395565b61038b61069636600461530f565b6113fd565b6105ad6106a9366004615480565b611831565b3480156106ba57600080fd5b506105ad6106c9366004615503565b611850565b3480156106da57600080fd5b5061038b611ac5565b3480156106ef57600080fd5b50607754610450906001600160a01b031681565b34801561070f57600080fd5b50606454610450906001600160a01b031681565b34801561072f57600080fd5b5061038b61073e36600461530f565b606a60209081526000928352604080842090915290825290205481565b34801561076757600080fd5b50607954610450906001600160a01b031681565b34801561078757600080fd5b50610400611ae2565b34801561079c57600080fd5b5061038b607a5481565b3480156107b257600080fd5b5061038b6107c13660046155d1565b611af7565b3480156107d257600080fd5b50606554610450906001600160a01b031681565b3480156107f257600080fd5b5061038b610801366004615390565b611b4d565b34801561081257600080fd5b5061038b60685481565b34801561082857600080fd5b506105ad6108373660046152d6565b611b78565b34801561084857600080fd5b506105ad6108573660046152d6565b611da6565b34801561086857600080fd5b50607854610450906001600160a01b031681565b34801561088857600080fd5b506105ad611e54565b34801561089d57600080fd5b5061038b6108ac366004615390565b606d6020526000908152604090205481565b3480156108ca57600080fd5b5061038b612338565b3480156108df57600080fd5b506105ad6123b6565b3480156108f457600080fd5b50606754610450906001600160a01b031681565b61038b610916366004615601565b612467565b34801561092757600080fd5b5061038b61262a565b34801561093c57600080fd5b5061038b61094b3660046155d1565b61269e565b34801561095c57600080fd5b506103b36126ec565b34801561097157600080fd5b5061040061098036600461530f565b612709565b34801561099157600080fd5b5061038b612717565b3480156109a657600080fd5b506103b3604051806040016040528060058152602001640352e302e360dc1b81525081565b3480156109d757600080fd5b506105ad6109e63660046152d6565b612733565b3480156109f757600080fd5b5061038b610a063660046152d6565b612829565b348015610a1757600080fd5b5061038b610a26366004615623565b612836565b348015610a3757600080fd5b506105ad610a463660046152d6565b61288e565b348015610a5757600080fd5b5061038b610a66366004615623565b6129aa565b348015610a7757600080fd5b5061038b610a8636600461530f565b6129f9565b348015610a9757600080fd5b5061038b610aa636600461530f565b606c60209081526000928352604080842090915290825290205481565b348015610acf57600080fd5b5061038b60695481565b348015610ae557600080fd5b5061038b610af43660046152d6565b612e11565b348015610b0557600080fd5b5061038b610b1436600461530f565b612e1e565b348015610b2557600080fd5b506105ad610b34366004615665565b613072565b348015610b4557600080fd5b5061038b610b54366004615390565b6131c0565b348015610b6557600080fd5b5061038b610b74366004615390565b6131d5565b348015610b8557600080fd5b506105ad610b943660046152d6565b6131e0565b348015610ba557600080fd5b5061038b610bb4366004615705565b61328e565b348015610bc557600080fd5b5061038b60765481565b348015610bdb57600080fd5b5061038b610bea36600461530f565b6132ca565b348015610bfb57600080fd5b5061038b610c0a36600461530f565b606b60209081526000928352604080842090915290825290205481565b348015610c3357600080fd5b5061038b610c4236600461530f565b613624565b348015610c5357600080fd5b5061038b610c623660046152d6565b613ade565b6000610c7161127a565b6001600160a01b03166370a08231306040518263ffffffff1660e01b8152600401610c9c919061533b565b602060405180830381865afa158015610cb9573d6000803e3d6000fd5b505050506040513d601f19601f82011682018060405250810190610cdd9190615733565b905090565b60606000610cee613d96565b9050806003018054610cff9061574c565b80601f0160208091040260200160405190810160405280929190818152602001828054610d2b9061574c565b8015610d785780601f10610d4d57610100808354040283529160200191610d78565b820191906000526020600020905b815481529060010190602001808311610d5b57829003601f168201915b505050505091505090565b6000610d90826000613dba565b92915050565b600033610da4818585613df9565b5060019392505050565b6000610d90826001613e0b565b600080610dc6613d96565b6002015492915050565b6000610dda613e40565b610de2613e76565b6067546040516370a0823160e01b81526001600160a01b0390911690839082906370a0823190610e1690339060040161533b565b602060405180830381865afa158015610e33573d6000803e3d6000fd5b505050506040513d601f19601f82011682018060405250810190610e579190615733565b1015610e7657604051631e9acf1760e31b815260040160405180910390fd5b6040516323b872dd60e01b81526001600160a01b038216906323b872dd90610ea690339030908890600401615786565b6020604051808303816000875af1158015610ec5573d6000803e3d6000fd5b505050506040513d601f19601f82011682018060405250810190610ee991906157ba565b50610ef43384613e9c565b6000610f018433336129aa565b606454604051632770a7eb60e21b81529192506000916001600160a01b0390911690639dc29fac90610f3990339086906004016157d5565b6020604051808303816000875af1158015610f58573d6000803e3d6000fd5b505050506040513d601f19601f82011682018060405250810190610f7c91906157ba565b905080610f9c57604051631bc5aabf60e21b815260040160405180910390fd5b610fa582613f7e565b336000908152606d6020526040812080549082610fc183615804565b90915550336000908152606a60209081526040808320848452909152812080549293508592909190610ff490849061581d565b9091555050336000818152606b602090815260408083208584528252808320439055838352606c825280832085845290915280822082905551600080516020615d288339815191529161104b918591908890615830565b60405180910390a2509092505050611061613fe0565b919050565b600033611074858285613ff1565b61107f858585614045565b60019150505b9392505050565b6000806110976140a4565b9050600081546110b19190600160a01b900460ff16615849565b91505090565b60006110c1613e40565b6110c9613e76565b346000036110ea57604051632ca2f52b60e11b815260040160405180910390fd5b607a543410156111405760405162461bcd60e51b815260206004820152601c60248201527b135a5b9a5b5d5b481cdd185ad948185b5bdd5b9d081b9bdd081b595d60221b60448201526064015b60405180910390fd5b611149346140c8565b6064546040516340c10f1960e01b81526000916001600160a01b0316906340c10f199061117c90339034906004016157d5565b6020604051808303816000875af115801561119b573d6000803e3d6000fd5b505050506040513d601f19601f820116820180604052508101906111bf91906157ba565b9050806111e3573334604051630e21dcbb60e11b81526004016111379291906157d5565b60006111ef3430611af7565b90506111fb84826140f9565b6078546040516000916001600160a01b03169034908381818185875af1925050503d8060008114611248576040519150601f19603f3d011682016040523d82523d6000602084013e61124d565b606091505b505090508061126e5760405162461bcd60e51b815260040161113790615862565b50915050611061613fe0565b6000806112856140a4565b546001600160a01b031692915050565b603254604051630935e01b60e21b81526001600160a01b03909116906324d7806c906112c590339060040161533b565b602060405180830381865afa1580156112e2573d6000803e3d6000fd5b505050506040513d601f19601f8201168201806040525081019061130691906157ba565b604051806060016040528060218152602001615d73602191399061133d5760405162461bcd60e51b815260040161113791906152c3565b50606e55565b603254604051630935e01b60e21b81526001600160a01b03909116906324d7806c9061137390339060040161533b565b602060405180830381865afa158015611390573d6000803e3d6000fd5b505050506040513d601f19601f820116820180604052508101906113b491906157ba565b604051806060016040528060218152602001615d7360219139906113eb5760405162461bcd60e51b815260040161113791906152c3565b506113f461419f565b565b5060001990565b6000611407613e40565b61140f613e76565b8160000361143057604051632ca2f52b60e11b815260040160405180910390fd5b813410156114b8576066546001600160a01b03166323b872dd3330611455348761588b565b6040518463ffffffff1660e01b815260040161147393929190615786565b6020604051808303816000875af1158015611492573d6000803e3d6000fd5b505050506040513d601f19601f820116820180604052508101906114b691906157ba565b505b607a548210156115455760665460795460405163a9059cbb60e01b81526001600160a01b039283169263a9059cbb926114f89291169086906004016157d5565b6020604051808303816000875af1158015611517573d6000803e3d6000fd5b505050506040513d601f19601f8201168201806040525081019061153b91906157ba565b5060009050611829565b606654607954607b5460405163a9059cbb60e01b81526001600160a01b039384169363a9059cbb9361157c939116916004016157d5565b6020604051808303816000875af115801561159b573d6000803e3d6000fd5b505050506040513d601f19601f820116820180604052508101906115bf91906157ba565b506115c86141f6565b6000607b54836115d8919061588b565b90506115e3816140c8565b6064546040516340c10f1960e01b81526000916001600160a01b0316906340c10f199061161690339086906004016157d5565b6020604051808303816000875af1158015611635573d6000803e3d6000fd5b505050506040513d601f19601f8201168201806040525081019061165991906157ba565b90508061167d573382604051630e21dcbb60e11b81526004016111379291906157d5565b60006116898330611af7565b6078546040519192506000916001600160a01b039091169085908381818185875af1925050503d80600081146116db576040519150601f19603f3d011682016040523d82523d6000602084013e6116e0565b606091505b50509050806117015760405162461bcd60e51b815260040161113790615862565b607554611717906001600160a01b0316836140f9565b6075546040516323b32a0760e01b81526000916001600160a01b0316906323b32a0790611749906002906004016158b4565b600060405180830381865afa158015611766573d6000803e3d6000fd5b505050506040513d6000823e601f3d908101601f1916820160405261178e91908101906158ed565b607554606f5460675460405162734a2760e51b81529394506001600160a01b0392831693630e6944e0936117dd936001600160401b0316928e929116908990889060019060009060040161595a565b6020604051808303816000875af11580156117fc573d6000803e3d6000fd5b505050506040513d601f19601f820116820180604052508101906118209190615733565b50919450505050505b610d90613fe0565b6118396142a4565b61184282614349565b61184c8282614481565b5050565b600061185a614535565b805490915060ff600160401b82041615906001600160401b03166000811580156118815750825b90506000826001600160401b0316600114801561189d5750303b155b9050811580156118ab575080155b156118c95760405163f92ee8a960e01b815260040160405180910390fd5b845467ffffffffffffffff1916600117855583156118f357845460ff60401b1916600160401b1785555b6001600160a01b038e1661191a57604051630ccd248560e21b815260040160405180910390fd5b6001600160a01b038b16611941576040516303fdd79160e51b815260040160405180910390fd5b6001600160a01b038a1661196857604051631eca2c8b60e21b815260040160405180910390fd5b6119728d8d614559565b61197b8e61456b565b61198361457c565b61198b61458c565b6119948861459c565b61199d896145ad565b6119a56145be565b8d606460006101000a8154816001600160a01b0302191690836001600160a01b031602179055508d606560006101000a8154816001600160a01b0302191690836001600160a01b031602179055508a606760006101000a8154816001600160a01b0302191690836001600160a01b0316021790555089606660006101000a8154816001600160a01b0302191690836001600160a01b03160217905550600a60768190555061fd20606e819055508660698190555085607a8190555067d02ab486cedc0000607b819055508315611ab557845460ff60401b19168555604051600181527fc7f505b2f371ae2175ee4913f4499e1f2633a7b5936321eed1cdaeb6115181d29060200160405180910390a15b5050505050505050505050505050565b6000611acf6145c6565b50600080516020615d0883398151915290565b600080611aed61460f565b5460ff1692915050565b600080611b03836113f6565b905080841115611b2c57828482604051633c8097d960e11b8152600401611137939291906159b7565b6000611b3785612e11565b9050611b4533858784614633565b949350505050565b600080611b58613d96565b6001600160a01b0390931660009081526020939093525050604090205490565b6000546040805163064e473960e31b815290516001600160a01b0390921691630d2020dd91839163327239c8916004808201926020929091908290030181865afa158015611bca573d6000803e3d6000fd5b505050506040513d601f19601f82011682018060405250810190611bee9190615733565b6040518263ffffffff1660e01b8152600401611c0c91815260200190565b602060405180830381865afa158015611c29573d6000803e3d6000fd5b505050506040513d601f19601f82011682018060405250810190611c4d91906159d8565b6001600160a01b0316336001600160a01b0316146040518060400160405280601a81526020017943616c6c6572206973206e6f742064617070207374616b696e6760301b81525090611cb25760405162461bcd60e51b815260040161113791906152c3565b506064546040516340c10f1960e01b81526000916001600160a01b0316906340c10f1990611ce690309086906004016157d5565b6020604051808303816000875af1158015611d05573d6000803e3d6000fd5b505050506040513d601f19601f82011682018060405250810190611d2991906157ba565b905080611d6d5760405162461bcd60e51b815260206004820152601260248201527114995dd85c99081b5a5b9d0819985a5b195960721b6044820152606401611137565b60405182815233907fac24935fd910bc682b5ccb1a07b718cadf8cf2f6d1404c4f3ddc3662dae40e299060200160405180910390a25050565b603254604051630935e01b60e21b81526001600160a01b03909116906324d7806c90611dd690339060040161533b565b602060405180830381865afa158015611df3573d6000803e3d6000fd5b505050506040513d601f19601f82011682018060405250810190611e1791906157ba565b604051806060016040528060218152602001615d736021913990611e4e5760405162461bcd60e51b815260040161113791906152c3565b50607a55565b603254604051630935e01b60e21b81526001600160a01b03909116906324d7806c90611e8490339060040161533b565b602060405180830381865afa158015611ea1573d6000803e3d6000fd5b505050506040513d601f19601f82011682018060405250810190611ec591906157ba565b604051806060016040528060218152602001615d736021913990611efc5760405162461bcd60e51b815260040161113791906152c3565b50600080546040805163064e473960e31b815290516001600160a01b0390921691630d2020dd91839163327239c8916004808201926020929091908290030181865afa158015611f50573d6000803e3d6000fd5b505050506040513d601f19601f82011682018060405250810190611f749190615733565b6040518263ffffffff1660e01b8152600401611f9291815260200190565b602060405180830381865afa158015611faf573d6000803e3d6000fd5b505050506040513d601f19601f82011682018060405250810190611fd391906159d8565b90506001600160a01b038116611ffc57604051633dc9e5ed60e11b815260040160405180910390fd5b607880546001600160a01b0319166001600160a01b038381169190911790915560008054604080516304ee839f60e31b8152905192939190911691630d2020dd9183916327741cf8916004808201926020929091908290030181865afa15801561206a573d6000803e3d6000fd5b505050506040513d601f19601f8201168201806040525081019061208e9190615733565b6040518263ffffffff1660e01b81526004016120ac91815260200190565b602060405180830381865afa1580156120c9573d6000803e3d6000fd5b505050506040513d601f19601f820116820180604052508101906120ed91906159d8565b90506001600160a01b0381166121165760405163985fca6560e01b815260040160405180910390fd5b607580546001600160a01b0319166001600160a01b03838116919091179091556000805460408051632e0cfaeb60e01b8152905192939190911691630d2020dd918391632e0cfaeb916004808201926020929091908290030181865afa158015612184573d6000803e3d6000fd5b505050506040513d601f19601f820116820180604052508101906121a89190615733565b6040518263ffffffff1660e01b81526004016121c691815260200190565b602060405180830381865afa1580156121e3573d6000803e3d6000fd5b505050506040513d601f19601f8201168201806040525081019061220791906159d8565b90506001600160a01b03811661223057604051637aff60db60e01b815260040160405180910390fd5b60005460408051630a9eba9f60e21b815290516001600160a01b0390921691630d2020dd918391632a7aea7c916004808201926020929091908290030181865afa158015612282573d6000803e3d6000fd5b505050506040513d601f19601f820116820180604052508101906122a69190615733565b6040518263ffffffff1660e01b81526004016122c491815260200190565b602060405180830381865afa1580156122e1573d6000803e3d6000fd5b505050506040513d601f19601f8201168201806040525081019061230591906159d8565b607980546001600160a01b039283166001600160a01b031991821617909155607780549390921692169190911790555050565b60785460408051632addcf0760e21b815290516000926001600160a01b0316803192909163ab773c1c9160048082019260a0929091908290030181865afa158015612387573d6000803e3d6000fd5b505050506040513d601f19601f820116820180604052508101906123ab91906159f5565b51610cdd919061581d565b603254604051630935e01b60e21b81526001600160a01b03909116906324d7806c906123e690339060040161533b565b602060405180830381865afa158015612403573d6000803e3d6000fd5b505050506040513d601f19601f8201168201806040525081019061242791906157ba565b604051806060016040528060218152602001615d73602191399061245e5760405162461bcd60e51b815260040161113791906152c3565b506113f46146be565b600080546040805163064e473960e31b815290516001600160a01b0390921691630d2020dd91839163327239c8916004808201926020929091908290030181865afa1580156124ba573d6000803e3d6000fd5b505050506040513d601f19601f820116820180604052508101906124de9190615733565b6040518263ffffffff1660e01b81526004016124fc91815260200190565b602060405180830381865afa158015612519573d6000803e3d6000fd5b505050506040513d601f19601f8201168201806040525081019061253d91906159d8565b6001600160a01b0316336001600160a01b0316146040518060400160405280601a81526020017943616c6c6572206973206e6f742064617070207374616b696e6760301b815250906125a25760405162461bcd60e51b815260040161113791906152c3565b508234146125c357604051632ca2f52b60e11b815260040160405180910390fd5b81156125e15781606860008282546125db919061581d565b90915550505b6078546040518481526001600160a01b03909116907f95f30475246bf03ac482e90dc7d7baa905e415fbb98fd08f16a27efde1445dd29060200160405180910390a25090919050565b60785460408051632addcf0760e21b815290516000926001600160a01b03169163ab773c1c9160048083019260a09291908290030181865afa158015612674573d6000803e3d6000fd5b505050506040513d601f19601f8201168201806040525081019061269891906159f5565b51919050565b6000806126aa836113f6565b9050808411156126d35782848260405163284ff66760e01b8152600401611137939291906159b7565b60006126de85612829565b9050611b4533858388614633565b606060006126f8613d96565b9050806004018054610cff9061574c565b600033610da4818585614045565b6068546000904790811161272b57806110b1565b505060685490565b603254604051630935e01b60e21b81526001600160a01b03909116906324d7806c9061276390339060040161533b565b602060405180830381865afa158015612780573d6000803e3d6000fd5b505050506040513d601f19601f820116820180604052508101906127a491906157ba565b604051806060016040528060218152602001615d7360219139906127db5760405162461bcd60e51b815260040161113791906152c3565b506113888111156128245760405162461bcd60e51b8152602060048201526013602482015272496e76616c696420696e7374616e742066656560681b6044820152606401611137565b606955565b6000610d90826001613dba565b600080612842836131c0565b90508085111561286b57828582604051633fa733bb60e21b8152600401611137939291906159b7565b600061287686610dae565b90506128853386868985614705565b95945050505050565b603254604051630935e01b60e21b81526001600160a01b03909116906324d7806c906128be90339060040161533b565b602060405180830381865afa1580156128db573d6000803e3d6000fd5b505050506040513d601f19601f820116820180604052508101906128ff91906157ba565b604051806060016040528060218152602001615d7360219139906129365760405162461bcd60e51b815260040161113791906152c3565b50607a5481106129a55760405162461bcd60e51b815260206004820152603460248201527f43434950206665652063616e6e6f742062652067726561746572207468616e206044820152731b5a5b9a5b5d5b481cdd185ad948185b5bdd5b9d60621b6064820152608401611137565b607b55565b6000806129b6836131d5565b9050808511156129df57828582604051632e52afbb60e21b8152600401611137939291906159b7565b60006129ea86610d83565b9050612885338686848a614705565b6000612a03613e40565b600054604080516304ee839f60e31b815290516001600160a01b0390921691630d2020dd9183916327741cf8916004808201926020929091908290030181865afa158015612a55573d6000803e3d6000fd5b505050506040513d601f19601f82011682018060405250810190612a799190615733565b6040518263ffffffff1660e01b8152600401612a9791815260200190565b602060405180830381865afa158015612ab4573d6000803e3d6000fd5b505050506040513d601f19601f82011682018060405250810190612ad891906159d8565b6001600160a01b0316336001600160a01b0316146040518060400160405280601881526020017743616c6c6572206973206e6f74204343495042726964676560401b81525090612b3b5760405162461bcd60e51b815260040161113791906152c3565b50612b44613e76565b6067546040516323b872dd60e01b81526001600160a01b03909116906323b872dd90612b7890339030908790600401615786565b6020604051808303816000875af1158015612b97573d6000803e3d6000fd5b505050506040513d601f19601f82011682018060405250810190612bbb91906157ba565b50606954829015612c6d57600061271060695485612bd99190615a6b565b612be39190615a98565b60675460795460405163a9059cbb60e01b81529293506001600160a01b039182169263a9059cbb92612c1b92169085906004016157d5565b6020604051808303816000875af1158015612c3a573d6000803e3d6000fd5b505050506040513d601f19601f82011682018060405250810190612c5e91906157ba565b50612c69818361588b565b9150505b612c773382613e9c565b6000612c848286336129aa565b606454604051632770a7eb60e21b81529192506000916001600160a01b0390911690639dc29fac90612cbc90899086906004016157d5565b6020604051808303816000875af1158015612cdb573d6000803e3d6000fd5b505050506040513d601f19601f82011682018060405250810190612cff91906157ba565b905080612d1f57604051631bc5aabf60e21b815260040160405180910390fd5b612d2882613f7e565b6001600160a01b0386166000908152606d6020526040812080549082612d4d83615804565b909155506001600160a01b0388166000908152606a60209081526040808320848452909152812080549293508592909190612d8990849061581d565b9091555050606e54612d9b904361588b565b6001600160a01b0388166000818152606b60209081526040808320868452825280832094909455828252606c81528382208583529052829020600390559051600080516020615d2883398151915290612dfa9084906002908b90615830565b60405180910390a285945050505050610d90613fe0565b6000610d90826000613e0b565b6000612e28613e40565b612e30613e76565b6001600160a01b0383166000908152606a6020908152604080832085845290915281205490819003612e7557604051631509a84360e11b815260040160405180910390fd5b606e546001600160a01b0385166000908152606b60209081526040808320878452909152902054612ea6919061581d565b431015612ec65760405163326d51b360e21b815260040160405180910390fd5b60785460408051632addcf0760e21b815290516000926001600160a01b03169163ab773c1c9160048083019260a09291908290030181865afa158015612f10573d6000803e3d6000fd5b505050506040513d601f19601f82011682018060405250810190612f3491906159f5565b9050600061271060765484612f499190615a6b565b612f539190615a98565b9050828110612f755760405163617ab12d60e11b815260040160405180910390fd5b6001600160a01b0386166000908152606a602090815260408083208884529091528120819055612fa4846147bd565b90506000876001600160a01b03168260405160006040518083038185875af1925050503d8060008114612ff3576040519150601f19603f3d011682016040523d82523d6000602084013e612ff8565b606091505b505090508061301e578782604051630e21dcbb60e11b81526004016111379291906157d5565b60408051838152602081018990526001600160a01b038a169133917f9b2e9cf2080309cccbee86df2a41eb388713090d01e76e9b7b2710228c5c074a910160405180910390a3509350505050610d90613fe0565b603254604051630935e01b60e21b81526001600160a01b03909116906324d7806c906130a290339060040161533b565b602060405180830381865afa1580156130bf573d6000803e3d6000fd5b505050506040513d601f19601f820116820180604052508101906130e391906157ba565b604051806060016040528060218152602001615d73602191399061311a5760405162461bcd60e51b815260040161113791906152c3565b508051606f805460208401516001600160401b039093166001600160e01b031990911617600160401b6001600160a01b03938416021790556040820151607080546001600160a01b03199081169284169290921790556060830151607180548316918416919091179055608083015160728054831691841691909117905560a083015160738054831691841691909117905560c090920151607480549093169116179055565b6000610d906131ce83611b4d565b6000613dba565b6000610d9082611b4d565b603254604051630935e01b60e21b81526001600160a01b03909116906324d7806c9061321090339060040161533b565b602060405180830381865afa15801561322d573d6000803e3d6000fd5b505050506040513d601f19601f8201168201806040525081019061325191906157ba565b604051806060016040528060218152602001615d7360219139906132885760405162461bcd60e51b815260040161113791906152c3565b50607655565b600080613299613d96565b6001600160a01b03948516600090815260019190910160209081526040808320959096168252939093525050205490565b60006132d4613e40565b600054604080516304ee839f60e31b815290516001600160a01b0390921691630d2020dd9183916327741cf8916004808201926020929091908290030181865afa158015613326573d6000803e3d6000fd5b505050506040513d601f19601f8201168201806040525081019061334a9190615733565b6040518263ffffffff1660e01b815260040161336891815260200190565b602060405180830381865afa158015613385573d6000803e3d6000fd5b505050506040513d601f19601f820116820180604052508101906133a991906159d8565b6001600160a01b0316336001600160a01b0316146040518060400160405280601881526020017743616c6c6572206973206e6f74204343495042726964676560401b8152509061340c5760405162461bcd60e51b815260040161113791906152c3565b50613415613e76565b6067546040516323b872dd60e01b81526001600160a01b03909116906323b872dd9061344990339030908790600401615786565b6020604051808303816000875af1158015613468573d6000803e3d6000fd5b505050506040513d601f19601f8201168201806040525081019061348c91906157ba565b506134973383613e9c565b60006134a48385336129aa565b606454604051632770a7eb60e21b81529192506000916001600160a01b0390911690639dc29fac906134dc90889086906004016157d5565b6020604051808303816000875af11580156134fb573d6000803e3d6000fd5b505050506040513d601f19601f8201168201806040525081019061351f91906157ba565b90508061353f57604051631bc5aabf60e21b815260040160405180910390fd5b61354882613f7e565b6001600160a01b0385166000908152606d602052604081208054908261356d83615804565b909155506001600160a01b0387166000908152606a602090815260408083208484529091528120805492935085929091906135a990849061581d565b90915550506001600160a01b0386166000818152606b602090815260408083208584528252808320439055338352606c8252808320858452909152908190206002908190559051600080516020615d288339815191529161360e918591908a90615830565b60405180910390a2849350505050610d90613fe0565b600061362e613e40565b613636613e76565b6001600160a01b0383166000908152606a60209081526040808320858452909152812054900361367957604051631509a84360e11b815260040160405180910390fd5b606e546001600160a01b0384166000908152606b602090815260408083208684529091529020546136aa919061581d565b4310156136ca5760405163326d51b360e21b815260040160405180910390fd5b6001600160a01b0383166000818152606a60209081526040808320868452825280832054938352606c825280832086845290915290205460030361377757613710612717565b81111561375f5760405162461bcd60e51b815260206004820152601f60248201527f496e7374616e7420756e7374616b6520616d6f756e74206578636565646564006044820152606401611137565b8060686000828254613771919061588b565b90915550505b60006127106076548361378a9190615a6b565b6137949190615a98565b90508181106137b65760405163617ab12d60e11b815260040160405180910390fd5b6001600160a01b0385166000818152606a602090815260408083208884528252808320839055928252606b815282822087835290529081208190556137fa836147bd565b6066546040516370a0823160e01b81529192506000916001600160a01b03909116906370a082319061383090309060040161533b565b602060405180830381865afa15801561384d573d6000803e3d6000fd5b505050506040513d601f19601f820116820180604052508101906138719190615733565b90508181101561390557613885818361588b565b4710156138a557604051631e9acf1760e31b815260040160405180910390fd5b6066546001600160a01b031663d0e30db06138c0838561588b565b6040518263ffffffff1660e01b81526004016000604051808303818588803b1580156138eb57600080fd5b505af11580156138ff573d6000803e3d6000fd5b50505050505b60665460755460405163a9059cbb60e01b81526001600160a01b039283169263a9059cbb9261393b9291169086906004016157d5565b6020604051808303816000875af115801561395a573d6000803e3d6000fd5b505050506040513d601f19601f8201168201806040525081019061397e91906157ba565b506075546040516323b32a0760e01b81526000916001600160a01b0316906323b32a07906139b1906002906004016158b4565b600060405180830381865afa1580156139ce573d6000803e3d6000fd5b505050506040513d6000823e601f3d908101601f191682016040526139f691908101906158ed565b607554606f5460665460405162734a2760e51b81529394506001600160a01b0392831693630e6944e093613a45936001600160401b0316928e929116908990889060019060009060040161595a565b6020604051808303816000875af1158015613a64573d6000803e3d6000fd5b505050506040513d601f19601f82011682018060405250810190613a889190615733565b5060408051848152602081018990526001600160a01b038a169133917f9b2e9cf2080309cccbee86df2a41eb388713090d01e76e9b7b2710228c5c074a910160405180910390a350909350505050610d90613fe0565b6000613ae8613e40565b613af0613e76565b6067546040516323b872dd60e01b81526001600160a01b039091169081906323b872dd90613b2690339030908890600401615786565b6020604051808303816000875af1158015613b45573d6000803e3d6000fd5b505050506040513d601f19601f82011682018060405250810190613b6991906157ba565b50613b743384613e9c565b6000613b818433336129aa565b606454604051632770a7eb60e21b81529192506001600160a01b031690639dc29fac90613bb490339085906004016157d5565b6020604051808303816000875af1158015613bd3573d6000803e3d6000fd5b505050506040513d601f19601f82011682018060405250810190613bf791906157ba565b613c1457604051631bc5aabf60e21b815260040160405180910390fd5b613c1c612717565b841115613c3c57604051633f987c6160e01b815260040160405180910390fd5b8360686000828254613c4e919061588b565b9091555050606954849015613d1157600061271060695487613c709190615a6b565b613c7a9190615a98565b6079546040519192506000916001600160a01b039091169083908381818185875af1925050503d8060008114613ccc576040519150601f19603f3d011682016040523d82523d6000602084013e613cd1565b606091505b5050905080613d0257607954604051630e21dcbb60e11b8152611137916001600160a01b03169084906004016157d5565b613d0c828461588b565b925050505b604051600090339083908381818185875af1925050503d8060008114613d53576040519150601f19603f3d011682016040523d82523d6000602084013e613d58565b606091505b5050905080613d7e573382604051630e21dcbb60e11b81526004016111379291906157d5565b613d8782613f7e565b85945050505050611061613fe0565b7f52c63247e1f47db19d5ce0460030c497f067ca4cebf71ba98eeadabe20bace0090565b6000611085613dc7610c67565b613dd290600161581d565b613dde6000600a615b90565b613de6610dbb565b613df0919061581d565b8591908561488a565b613e0683838360016148ce565b505050565b6000611085613e1b82600a615b90565b613e23610dbb565b613e2d919061581d565b613e35610c67565b613df090600161581d565b6000613e4a6149a3565b805490915060011901613e7057604051633ee5aeb560e01b815260040160405180910390fd5b60029055565b613e7e611ae2565b156113f45760405163d93c066560e01b815260040160405180910390fd5b60675460775460405163095ea7b360e01b81526001600160a01b039283169263095ea7b392613ed29291169085906004016157d5565b6020604051808303816000875af1158015613ef1573d6000803e3d6000fd5b505050506040513d601f19601f82011682018060405250810190613f1591906157ba565b506077546040516339f4769360e01b81526001600160a01b03909116906339f4769390613f4890859085906004016157d5565b600060405180830381600087803b158015613f6257600080fd5b505af1158015613f76573d6000803e3d6000fd5b505050505050565b607854604051631af8748d60e31b8152600481018390526001600160a01b039091169063d7c3a468906024015b600060405180830381600087803b158015613fc557600080fd5b505af1158015613fd9573d6000803e3d6000fd5b5050505050565b6000613fea6149a3565b6001905550565b6000613ffd848461328e565b905060001981101561403f578181101561403057828183604051637dc7a0d960e11b8152600401611137939291906159b7565b61403f848484840360006148ce565b50505050565b6001600160a01b03831661406f576000604051634b637e8f60e11b8152600401611137919061533b565b6001600160a01b03821661409957600060405163ec442f0560e01b8152600401611137919061533b565b613e068383836149c7565b7f0773e532dfede91f04b12a73d3d2acd361424f41f76b4fb79f090161e36b4e0090565b6078546040516397eeaf1160e01b8152600481018390526001600160a01b03909116906397eeaf1190602401613fab565b60775460405163095ea7b360e01b8152309163095ea7b391614129916001600160a01b03169085906004016157d5565b6020604051808303816000875af1158015614148573d6000803e3d6000fd5b505050506040513d601f19601f8201168201806040525081019061416c91906157ba565b50607754604051635f9bb63d60e11b81526001600160a01b039091169063bf376c7a90613f4890859085906004016157d5565b6141a7614aef565b60006141b161460f565b805460ff1916815590507f5db9ee0a495bf2e6ff9c91a7834c1ba4fdd244a5e8aa4e537bd38aeae4b073aa335b6040516141eb919061533b565b60405180910390a150565b6066546040516370a0823160e01b81526000916001600160a01b0316906370a082319061422790309060040161533b565b602060405180830381865afa158015614244573d6000803e3d6000fd5b505050506040513d601f19601f820116820180604052508101906142689190615733565b905080156142a157606654604051632e1a7d4d60e01b8152600481018390526001600160a01b0390911690632e1a7d4d90602401613fab565b50565b306001600160a01b037f000000000000000000000000000000000000000000000000000000000000000016148061432b57507f00000000000000000000000000000000000000000000000000000000000000006001600160a01b031661431f600080516020615d08833981519152546001600160a01b031690565b6001600160a01b031614155b156113f45760405163703e46dd60e11b815260040160405180910390fd5b603254604051631d15bea160e01b81526001600160a01b0390911690631d15bea19061437990339060040161533b565b602060405180830381865afa158015614396573d6000803e3d6000fd5b505050506040513d601f19601f820116820180604052508101906143ba91906157ba565b6040518060600160405280602b8152602001615d48602b9139906143f15760405162461bcd60e51b815260040161113791906152c3565b506001600160a01b0381166144485760405162461bcd60e51b815260206004820152601e60248201527f496e76616c696420696d706c656d656e746174696f6e206164647265737300006044820152606401611137565b6040516001600160a01b0382169030907f2e4cc16c100f0b55e2df82ab0b1a7e294aa9cbd01b48fbaf622683fbc0507a4990600090a350565b816001600160a01b03166352d1902d6040518163ffffffff1660e01b8152600401602060405180830381865afa9250505080156144db575060408051601f3d908101601f191682019092526144d891810190615733565b60015b6144fa5781604051634c9c8ce360e01b8152600401611137919061533b565b600080516020615d08833981519152811461452b57604051632a87526960e21b815260048101829052602401611137565b613e068383614b14565b7ff0c57e16840df040f15088dc2f81fe391c3923bec73e23a9662efc9c229c6a0090565b614561614b6a565b61184c8282614b8f565b614573614b6a565b6142a181614bc0565b614584614b6a565b6113f4614c2f565b614594614b6a565b6113f4614c37565b6145a4614b6a565b6142a181614c54565b6145b5614b6a565b6142a181614d20565b6113f4614b6a565b306001600160a01b037f000000000000000000000000000000000000000000000000000000000000000016146113f45760405163703e46dd60e11b815260040160405180910390fd5b7fcd5ed15c6e187e77e9aee88184c21f4f2182ab5827cb3b7e07fbedcd63f0330090565b600061463d6140a4565b8054909150614657906001600160a01b0316863086614dcb565b6146618483614e25565b836001600160a01b0316856001600160a01b03167fdcbc1c05240f31ff3ad067ef1ee35ce4997762752e3a095284754544f4c709d785856040516146af929190918252602082015260400190565b60405180910390a35050505050565b6146c6613e76565b60006146d061460f565b805460ff1916600117815590507f62e78cea01bee320cd4e420270b5ea74000d11b0c9f74754ebdbfc544b05a2586141de3390565b600061470f6140a4565b9050836001600160a01b0316866001600160a01b03161461473557614735848784613ff1565b61473f8483614e5b565b8054614755906001600160a01b03168685614e91565b836001600160a01b0316856001600160a01b0316876001600160a01b03167ffbde797d201c681b91056529119e0b02407c7bb96a4a2c75c01fc9667232c8db86866040516147ad929190918252602082015260400190565b60405180910390a4505050505050565b600080612710607654846147d19190615a6b565b6147db9190615a98565b90508281106147fd5760405163617ab12d60e11b815260040160405180910390fd5b6079546040516000916001600160a01b03169083908381818185875af1925050503d806000811461484a576040519150601f19603f3d011682016040523d82523d6000602084013e61484f565b606091505b505090508061488057607954604051630e21dcbb60e11b8152611137916001600160a01b03169084906004016157d5565b611b45828561588b565b60006148b961489883614eb7565b80156148b45750600084806148af576148af615a82565b868809115b151590565b6148c4868686614ee4565b612885919061581d565b60006148d8613d96565b90506001600160a01b03851661490457600060405163e602df0560e01b8152600401611137919061533b565b6001600160a01b03841661492e576000604051634a1406b160e11b8152600401611137919061533b565b6001600160a01b03808616600090815260018301602090815260408083209388168352929052208390558115613fd957836001600160a01b0316856001600160a01b03167f8c5be1e5ebec7d5bd14f71427d1e84f3dd0314c0f7b2291e5b200ac8c7c3b925856040516146af91815260200190565b7f9b779b17422d0df92223018b32b4d1fa46e071723d6817e2486d003becc55f0090565b60006149d1613d96565b90506001600160a01b038416614a0057818160020160008282546149f5919061581d565b90915550614a5f9050565b6001600160a01b03841660009081526020829052604090205482811015614a405784818460405163391434e360e21b8152600401611137939291906159b7565b6001600160a01b03851660009081526020839052604090209083900390555b6001600160a01b038316614a7d576002810180548390039055614a9c565b6001600160a01b03831660009081526020829052604090208054830190555b826001600160a01b0316846001600160a01b03167fddf252ad1be2c89b69c2b068fc378daa952ba7f163c4a11628f55a4df523b3ef84604051614ae191815260200190565b60405180910390a350505050565b614af7611ae2565b6113f457604051638dfc202b60e01b815260040160405180910390fd5b614b1d82614f9f565b6040516001600160a01b038316907fbc7cd75a20ee27fd9adebab32041f755214dbc6bffa90cc0225b39da2e5c2d3b90600090a2805115614b6257613e068282614ffb565b61184c615068565b614b72615087565b6113f457604051631afcd79f60e31b815260040160405180910390fd5b614b97614b6a565b6000614ba1613d96565b905060038101614bb18482615be7565b506004810161403f8382615be7565b614bc8614b6a565b6000614bd26140a4565b9050600080614be0846150a1565b9150915081614bf0576012614bf2565b805b83546001600160a81b031916600160a01b60ff92909216919091026001600160a01b031916176001600160a01b0394909416939093179091555050565b613fe0614b6a565b614c3f614b6a565b6000614c4961460f565b805460ff1916905550565b614c5c614b6a565b60408051808201909152601f81527f416464726573732070726f76696465722063616e6e6f74206265207a65726f0060208201526001600160a01b038216614cb75760405162461bcd60e51b815260040161113791906152c3565b506000816001600160a01b03163b11604051806060016040528060238152602001615ce56023913990614cfd5760405162461bcd60e51b815260040161113791906152c3565b50600080546001600160a01b0319166001600160a01b0392909216919091179055565b614d28614b6a565b60408051808201909152601a81527941434c20616464726573732063616e6e6f74206265207a65726f60301b60208201526001600160a01b038216614d805760405162461bcd60e51b815260040161113791906152c3565b50603280546001600160a01b0319166001600160a01b0383169081179091556040517fb682c047807b0e34dd5e7ec89aa8d43386ff4e25dbd12c98e2fbfd44b99936f990600090a250565b61403f84856001600160a01b03166323b872dd868686604051602401614df393929190615786565b604051602081830303815290604052915060e01b6020820180516001600160e01b03838183161783525050505061517d565b6001600160a01b038216614e4f57600060405163ec442f0560e01b8152600401611137919061533b565b61184c600083836149c7565b6001600160a01b038216614e85576000604051634b637e8f60e11b8152600401611137919061533b565b61184c826000836149c7565b613e0683846001600160a01b031663a9059cbb8585604051602401614df39291906157d5565b60006002826003811115614ecd57614ecd61589e565b614ed79190615ca6565b60ff166001149050919050565b6000838302816000198587098281108382030391505080600003614f1b57838281614f1157614f11615a82565b0492505050611085565b808411614f3257614f3260038515026011186151e5565b6000848688096000868103871696879004966002600389028118808a02820302808a02820302808a02820302808a02820302808a02820302808a02909103029181900381900460010186841190950394909402919094039290920491909117919091029150509392505050565b806001600160a01b03163b600003614fcc5780604051634c9c8ce360e01b8152600401611137919061533b565b600080516020615d0883398151915280546001600160a01b0319166001600160a01b0392909216919091179055565b6060600080846001600160a01b0316846040516150189190615cc8565b600060405180830381855af49150503d8060008114615053576040519150601f19603f3d011682016040523d82523d6000602084013e615058565b606091505b50915091506128858583836151f7565b34156113f45760405163b398979f60e01b815260040160405180910390fd5b6000615091614535565b54600160401b900460ff16919050565b60408051600481526024810182526020810180516001600160e01b031663313ce56760e01b17905290516000918291829182916001600160a01b038716916150e891615cc8565b600060405180830381855afa9150503d8060008114615123576040519150601f19603f3d011682016040523d82523d6000602084013e615128565b606091505b509150915081801561513c57506020815110155b15615170576000818060200190518101906151579190615733565b905060ff811161516e576001969095509350505050565b505b5060009485945092505050565b600080602060008451602086016000885af1806151a0576040513d6000823e3d81fd5b50506000513d915081156151b85780600114156151c5565b6001600160a01b0384163b155b1561403f5783604051635274afe760e01b8152600401611137919061533b565b634e487b71600052806020526024601cfd5b60608261520c576152078261524a565b611085565b815115801561522357506001600160a01b0384163b155b156152435783604051639996b31560e01b8152600401611137919061533b565b5080611085565b80511561525a5780518082602001fd5b60405163d6bda27560e01b815260040160405180910390fd5b60005b8381101561528e578181015183820152602001615276565b50506000910152565b600081518084526152af816020860160208601615273565b601f01601f19169290920160200192915050565b6020815260006110856020830184615297565b6000602082840312156152e857600080fd5b5035919050565b6001600160a01b03811681146142a157600080fd5b8035611061816152ef565b6000806040838503121561532257600080fd5b823561532d816152ef565b946020939093013593505050565b6001600160a01b0391909116815260200190565b60008060006060848603121561536457600080fd5b833561536f816152ef565b9250602084013561537f816152ef565b929592945050506040919091013590565b6000602082840312156153a257600080fd5b8135611085816152ef565b634e487b7160e01b600052604160045260246000fd5b60405160e081016001600160401b03811182821017156153e5576153e56153ad565b60405290565b604051601f8201601f191681016001600160401b0381118282101715615413576154136153ad565b604052919050565b60006001600160401b03821115615434576154346153ad565b50601f01601f191660200190565b60006154556154508461541b565b6153eb565b905082815283838301111561546957600080fd5b828260208301376000602084830101529392505050565b6000806040838503121561549357600080fd5b823561549e816152ef565b915060208301356001600160401b038111156154b957600080fd5b8301601f810185136154ca57600080fd5b6154d985823560208401615442565b9150509250929050565b600082601f8301126154f457600080fd5b61108583833560208501615442565b60008060008060008060008060006101208a8c03121561552257600080fd5b893561552d816152ef565b985060208a01356001600160401b038082111561554957600080fd5b6155558d838e016154e3565b995060408c013591508082111561556b57600080fd5b506155788c828d016154e3565b97505060608a0135615589816152ef565b955061559760808b01615304565b94506155a560a08b01615304565b93506155b360c08b01615304565b925060e08a013591506101008a013590509295985092959850929598565b600080604083850312156155e457600080fd5b8235915060208301356155f6816152ef565b809150509250929050565b6000806040838503121561561457600080fd5b50508035926020909101359150565b60008060006060848603121561563857600080fd5b83359250602084013561564a816152ef565b9150604084013561565a816152ef565b809150509250925092565b600060e0828403121561567757600080fd5b61567f6153c3565b82356001600160401b038116811461569657600080fd5b81526156a460208401615304565b60208201526156b560408401615304565b60408201526156c660608401615304565b60608201526156d760808401615304565b60808201526156e860a08401615304565b60a08201526156f960c08401615304565b60c08201529392505050565b6000806040838503121561571857600080fd5b8235615723816152ef565b915060208301356155f6816152ef565b60006020828403121561574557600080fd5b5051919050565b600181811c9082168061576057607f821691505b60208210810361578057634e487b7160e01b600052602260045260246000fd5b50919050565b6001600160a01b039384168152919092166020820152604081019190915260600190565b8051801515811461106157600080fd5b6000602082840312156157cc57600080fd5b611085826157aa565b6001600160a01b03929092168252602082015260400190565b634e487b7160e01b600052601160045260246000fd5b600060018201615816576158166157ee565b5060010190565b80820180821115610d9057610d906157ee565b92835260ff919091166020830152604082015260600190565b60ff8181168382160190811115610d9057610d906157ee565b6020808252600f908201526e151c985b9cd9995c8819985a5b1959608a1b604082015260600190565b81810381811115610d9057610d906157ee565b634e487b7160e01b600052602160045260246000fd5b6000600683106158d457634e487b7160e01b600052602160045260246000fd5b5090815260406020820181905260009082015260600190565b6000602082840312156158ff57600080fd5b81516001600160401b0381111561591557600080fd5b8201601f8101841361592657600080fd5b80516159346154508261541b565b81815285602083850101111561594957600080fd5b612885826020830160208601615273565b6001600160401b03881681526001600160a01b038781166020830152861660408201526060810185905260e06080820181905260009061599c90830186615297565b93151560a08301525090151560c09091015295945050505050565b6001600160a01b039390931683526020830191909152604082015260600190565b6000602082840312156159ea57600080fd5b8151611085816152ef565b600060a08284031215615a0757600080fd5b60405160a081018181106001600160401b0382111715615a2957615a296153ad565b8060405250825181526020830151602082015260408301516040820152615a52606084016157aa565b6060820152608083015160808201528091505092915050565b8082028115828204841417610d9057610d906157ee565b634e487b7160e01b600052601260045260246000fd5b600082615aa757615aa7615a82565b500490565b600181815b80851115615ae7578160001904821115615acd57615acd6157ee565b80851615615ada57918102915b93841c9390800290615ab1565b509250929050565b600082615afe57506001610d90565b81615b0b57506000610d90565b8160018114615b215760028114615b2b57615b47565b6001915050610d90565b60ff841115615b3c57615b3c6157ee565b50506001821b610d90565b5060208310610133831016604e8410600b8410161715615b6a575081810a610d90565b615b748383615aac565b8060001904821115615b8857615b886157ee565b029392505050565b600061108560ff841683615aef565b601f821115613e06576000816000526020600020601f850160051c81016020861015615bc85750805b601f850160051c820191505b81811015613f7657828155600101615bd4565b81516001600160401b03811115615c0057615c006153ad565b615c1481615c0e845461574c565b84615b9f565b602080601f831160018114615c495760008415615c315750858301515b600019600386901b1c1916600185901b178555613f76565b600085815260208120601f198616915b82811015615c7857888601518255948401946001909101908401615c59565b5085821015615c965787850151600019600388901b60f8161c191681555b5050505050600190811b01905550565b600060ff831680615cb957615cb9615a82565b8060ff84160691505092915050565b60008251615cda818460208701615273565b919091019291505056fe416464726573732070726f7669646572206d757374206265206120636f6e7472616374360894a13ba1a3210667c828492db98dca3e2076cc3735a920a3ca505d382bbcd4a7ff3a9f0e4a49045605fadf24307a39cd6c42365b9fb70e703dd866f9bc824f6e6c792075706772616465206d616e616765722063616e2063616c6c20746869732066756e6374696f6e4f6e6c792061646d696e2063616e2063616c6c20746869732066756e6374696f6ea264697066735822122071a75a965d3ffccb163d533d7b9a6fc93f4a8eca685de34decfdeb9c82fbb65264736f6c63430008160033",
    "devdoc": {
        "errors": {
            "AddressEmptyCode(address)": [
                {
                    "details": "There's no code at `target` (it is not a contract)."
                }
            ],
            "ERC1967InvalidImplementation(address)": [
                {
                    "details": "The `implementation` of the proxy is invalid."
                }
            ],
            "ERC1967NonPayable()": [
                {
                    "details": "An upgrade function sees `msg.value > 0` that may be lost."
                }
            ],
            "ERC20InsufficientAllowance(address,uint256,uint256)": [
                {
                    "details": "Indicates a failure with the `spender`s `allowance`. Used in transfers.",
                    "params": {
                        "allowance": "Amount of tokens a `spender` is allowed to operate with.",
                        "needed": "Minimum amount required to perform a transfer.",
                        "spender": "Address that may be allowed to operate on tokens without being their owner."
                    }
                }
            ],
            "ERC20InsufficientBalance(address,uint256,uint256)": [
                {
                    "details": "Indicates an error related to the current `balance` of a `sender`. Used in transfers.",
                    "params": {
                        "balance": "Current balance for the interacting account.",
                        "needed": "Minimum amount required to perform a transfer.",
                        "sender": "Address whose tokens are being transferred."
                    }
                }
            ],
            "ERC20InvalidApprover(address)": [
                {
                    "details": "Indicates a failure with the `approver` of a token to be approved. Used in approvals.",
                    "params": {
                        "approver": "Address initiating an approval operation."
                    }
                }
            ],
            "ERC20InvalidReceiver(address)": [
                {
                    "details": "Indicates a failure with the token `receiver`. Used in transfers.",
                    "params": {
                        "receiver": "Address to which tokens are being transferred."
                    }
                }
            ],
            "ERC20InvalidSender(address)": [
                {
                    "details": "Indicates a failure with the token `sender`. Used in transfers.",
                    "params": {
                        "sender": "Address whose tokens are being transferred."
                    }
                }
            ],
            "ERC20InvalidSpender(address)": [
                {
                    "details": "Indicates a failure with the `spender` to be approved. Used in approvals.",
                    "params": {
                        "spender": "Address that may be allowed to operate on tokens without being their owner."
                    }
                }
            ],
            "ERC4626ExceededMaxDeposit(address,uint256,uint256)": [
                {
                    "details": "Attempted to deposit more assets than the max amount for `receiver`."
                }
            ],
            "ERC4626ExceededMaxMint(address,uint256,uint256)": [
                {
                    "details": "Attempted to mint more shares than the max amount for `receiver`."
                }
            ],
            "ERC4626ExceededMaxRedeem(address,uint256,uint256)": [
                {
                    "details": "Attempted to redeem more shares than the max amount for `receiver`."
                }
            ],
            "ERC4626ExceededMaxWithdraw(address,uint256,uint256)": [
                {
                    "details": "Attempted to withdraw more assets than the max amount for `receiver`."
                }
            ],
            "EnforcedPause()": [
                {
                    "details": "The operation failed because the contract is paused."
                }
            ],
            "ExpectedPause()": [
                {
                    "details": "The operation failed because the contract is not paused."
                }
            ],
            "FailedCall()": [
                {
                    "details": "A call to an address target failed. The target may have reverted."
                }
            ],
            "InvalidInitialization()": [
                {
                    "details": "The contract is already initialized."
                }
            ],
            "NotInitializing()": [
                {
                    "details": "The contract is not initializing."
                }
            ],
            "ReentrancyGuardReentrantCall()": [
                {
                    "details": "Unauthorized reentrant call."
                }
            ],
            "SafeERC20FailedOperation(address)": [
                {
                    "details": "An operation with an ERC-20 token failed."
                }
            ],
            "UUPSUnauthorizedCallContext()": [
                {
                    "details": "The call is from an unauthorized context."
                }
            ],
            "UUPSUnsupportedProxiableUUID(bytes32)": [
                {
                    "details": "The storage `slot` is unsupported as a UUID."
                }
            ]
        },
        "events": {
            "Approval(address,address,uint256)": {
                "details": "Emitted when the allowance of a `spender` for an `owner` is set by a call to {approve}. `value` is the new allowance."
            },
            "Initialized(uint64)": {
                "details": "Triggered when the contract has been initialized or reinitialized."
            },
            "Paused(address)": {
                "details": "Emitted when the pause is triggered by `account`."
            },
            "Transfer(address,address,uint256)": {
                "details": "Emitted when `value` tokens are moved from one account (`from`) to another (`to`). Note that `value` may be zero."
            },
            "Unpaused(address)": {
                "details": "Emitted when the pause is lifted by `account`."
            },
            "Upgraded(address)": {
                "details": "Emitted when the implementation is upgraded."
            }
        },
        "kind": "dev",
        "methods": {
            "allowance(address,address)": {
                "details": "See {IERC20-allowance}."
            },
            "approve(address,uint256)": {
                "details": "See {IERC20-approve}. NOTE: If `value` is the maximum `uint256`, the allowance is not updated on `transferFrom`. This is semantically equivalent to an infinite approval. Requirements: - `spender` cannot be the zero address."
            },
            "asset()": {
                "details": "See {IERC4626-asset}. "
            },
            "balanceOf(address)": {
                "details": "See {IERC20-balanceOf}."
            },
            "constructor": {
                "custom:oz-upgrades-unsafe-allow": "constructor"
            },
            "convertToAssets(uint256)": {
                "details": "See {IERC4626-convertToAssets}. "
            },
            "convertToShares(uint256)": {
                "details": "See {IERC4626-convertToShares}. "
            },
            "decimals()": {
                "details": "Decimals are computed by adding the decimal offset on top of the underlying asset's decimals. This \"original\" value is cached during construction of the vault contract. If this read operation fails (e.g., the asset has not been created yet), a default of 18 is used to represent the underlying asset's decimals. See {IERC20Metadata-decimals}."
            },
            "deposit(uint256,address)": {
                "details": "See {IERC4626-deposit}. "
            },
            "maxDeposit(address)": {
                "details": "See {IERC4626-maxDeposit}. "
            },
            "maxMint(address)": {
                "details": "See {IERC4626-maxMint}. "
            },
            "maxRedeem(address)": {
                "details": "See {IERC4626-maxRedeem}. "
            },
            "maxWithdraw(address)": {
                "details": "See {IERC4626-maxWithdraw}. "
            },
            "mint(uint256,address)": {
                "details": "See {IERC4626-mint}. "
            },
            "name()": {
                "details": "Returns the name of the token."
            },
            "paused()": {
                "details": "Returns true if the contract is paused, and false otherwise."
            },
            "previewDeposit(uint256)": {
                "details": "See {IERC4626-previewDeposit}. "
            },
            "previewMint(uint256)": {
                "details": "See {IERC4626-previewMint}. "
            },
            "previewRedeem(uint256)": {
                "details": "See {IERC4626-previewRedeem}. "
            },
            "previewWithdraw(uint256)": {
                "details": "See {IERC4626-previewWithdraw}. "
            },
            "proxiableUUID()": {
                "details": "Implementation of the ERC-1822 {proxiableUUID} function. This returns the storage slot used by the implementation. It is used to validate the implementation's compatibility when performing an upgrade. IMPORTANT: A proxy pointing at a proxiable contract should not be considered proxiable itself, because this risks bricking a proxy that upgrades to it, by delegating to itself until out of gas. Thus it is critical that this function revert if invoked through a proxy. This is guaranteed by the `notDelegated` modifier."
            },
            "redeem(uint256,address,address)": {
                "details": "See {IERC4626-redeem}. "
            },
            "symbol()": {
                "details": "Returns the symbol of the token, usually a shorter version of the name."
            },
            "totalAssets()": {
                "details": "See {IERC4626-totalAssets}. "
            },
            "totalSupply()": {
                "details": "See {IERC20-totalSupply}."
            },
            "transfer(address,uint256)": {
                "details": "See {IERC20-transfer}. Requirements: - `to` cannot be the zero address. - the caller must have a balance of at least `value`."
            },
            "transferFrom(address,address,uint256)": {
                "details": "See {IERC20-transferFrom}. Skips emitting an {Approval} event indicating an allowance update. This is not required by the ERC. See {xref-ERC20-_approve-address-address-uint256-bool-}[_approve]. NOTE: Does not update the allowance if the current allowance is the maximum `uint256`. Requirements: - `from` and `to` cannot be the zero address. - `from` must have a balance of at least `value`. - the caller must have allowance for ``from``'s tokens of at least `value`."
            },
            "upgradeToAndCall(address,bytes)": {
                "custom:oz-upgrades-unsafe-allow-reachable": "delegatecall",
                "details": "Upgrade the implementation of the proxy to `newImplementation`, and subsequently execute the function call encoded in `data`. Calls {_authorizeUpgrade}. Emits an {Upgraded} event."
            },
            "withdraw(uint256,address,address)": {
                "details": "See {IERC4626-withdraw}. "
            }
        },
        "version": 1
    },
    "userdoc": {
        "kind": "user",
        "methods": {},
        "version": 1
    },
    "storageLayout": {
        "storage": [
            {
                "astId": 9872,
                "contract": "contracts/core/Vault.sol:Vault",
                "label": "addressProvider",
                "offset": 0,
                "slot": "0",
                "type": "t_contract(IAddressProvider)9351"
            },
            {
                "astId": 10001,
                "contract": "contracts/core/Vault.sol:Vault",
                "label": "__gap",
                "offset": 0,
                "slot": "1",
                "type": "t_array(t_uint256)49_storage"
            },
            {
                "astId": 9751,
                "contract": "contracts/core/Vault.sol:Vault",
                "label": "_ACL",
                "offset": 0,
                "slot": "50",
                "type": "t_address"
            },
            {
                "astId": 9862,
                "contract": "contracts/core/Vault.sol:Vault",
                "label": "__gap",
                "offset": 0,
                "slot": "51",
                "type": "t_array(t_uint256)49_storage"
            },
            {
                "astId": 7313,
                "contract": "contracts/core/Vault.sol:Vault",
                "label": "dASTR",
                "offset": 0,
                "slot": "100",
                "type": "t_address"
            },
            {
                "astId": 7316,
                "contract": "contracts/core/Vault.sol:Vault",
                "label": "underlying",
                "offset": 0,
                "slot": "101",
                "type": "t_contract(IERC20)2977"
            },
            {
                "astId": 7318,
                "contract": "contracts/core/Vault.sol:Vault",
                "label": "wastr",
                "offset": 0,
                "slot": "102",
                "type": "t_address"
            },
            {
                "astId": 7320,
                "contract": "contracts/core/Vault.sol:Vault",
                "label": "ccipwstASTR",
                "offset": 0,
                "slot": "103",
                "type": "t_address"
            },
            {
                "astId": 7322,
                "contract": "contracts/core/Vault.sol:Vault",
                "label": "instantUnstakeAmount",
                "offset": 0,
                "slot": "104",
                "type": "t_uint256"
            },
            {
                "astId": 7324,
                "contract": "contracts/core/Vault.sol:Vault",
                "label": "instantFee",
                "offset": 0,
                "slot": "105",
                "type": "t_uint256"
            },
            {
                "astId": 7330,
                "contract": "contracts/core/Vault.sol:Vault",
                "label": "pendingUnstake",
                "offset": 0,
                "slot": "106",
                "type": "t_mapping(t_address,t_mapping(t_uint256,t_uint256))"
            },
            {
                "astId": 7336,
                "contract": "contracts/core/Vault.sol:Vault",
                "label": "pendingUnstakeAt",
                "offset": 0,
                "slot": "107",
                "type": "t_mapping(t_address,t_mapping(t_uint256,t_uint256))"
            },
            {
                "astId": 7342,
                "contract": "contracts/core/Vault.sol:Vault",
                "label": "pendingUnstakeChain",
                "offset": 0,
                "slot": "108",
                "type": "t_mapping(t_address,t_mapping(t_uint256,t_uint256))"
            },
            {
                "astId": 7346,
                "contract": "contracts/core/Vault.sol:Vault",
                "label": "nonces",
                "offset": 0,
                "slot": "109",
                "type": "t_mapping(t_address,t_uint256)"
            },
            {
                "astId": 7348,
                "contract": "contracts/core/Vault.sol:Vault",
                "label": "unlockPeriod",
                "offset": 0,
                "slot": "110",
                "type": "t_uint256"
            },
            {
                "astId": 7351,
                "contract": "contracts/core/Vault.sol:Vault",
                "label": "l2CCIP",
                "offset": 0,
                "slot": "111",
                "type": "t_struct(L2CCIP)7383_storage"
            },
            {
                "astId": 7354,
                "contract": "contracts/core/Vault.sol:Vault",
                "label": "ccipBridge",
                "offset": 0,
                "slot": "117",
                "type": "t_contract(ICCIPBridge)9584"
            },
            {
                "astId": 7356,
                "contract": "contracts/core/Vault.sol:Vault",
                "label": "withdrawFee",
                "offset": 0,
                "slot": "118",
                "type": "t_uint256"
            },
            {
                "astId": 7359,
                "contract": "contracts/core/Vault.sol:Vault",
                "label": "stASTRWrapper",
                "offset": 0,
                "slot": "119",
                "type": "t_contract(ISTASTRWrapper)9725"
            },
            {
                "astId": 7362,
                "contract": "contracts/core/Vault.sol:Vault",
                "label": "dappStaking",
                "offset": 0,
                "slot": "120",
                "type": "t_contract(IDappStakingManager)9686"
            },
            {
                "astId": 7364,
                "contract": "contracts/core/Vault.sol:Vault",
                "label": "daoVault",
                "offset": 0,
                "slot": "121",
                "type": "t_address"
            },
            {
                "astId": 7366,
                "contract": "contracts/core/Vault.sol:Vault",
                "label": "minimumStakeAmount",
                "offset": 0,
                "slot": "122",
                "type": "t_uint256"
            },
            {
                "astId": 7368,
                "contract": "contracts/core/Vault.sol:Vault",
                "label": "ccipFee",
                "offset": 0,
                "slot": "123",
                "type": "t_uint256"
            }
        ],
        "types": {
            "t_address": {
                "encoding": "inplace",
                "label": "address",
                "numberOfBytes": "20"
            },
            "t_array(t_uint256)49_storage": {
                "base": "t_uint256",
                "encoding": "inplace",
                "label": "uint256[49]",
                "numberOfBytes": "1568"
            },
            "t_contract(IAddressProvider)9351": {
                "encoding": "inplace",
                "label": "contract IAddressProvider",
                "numberOfBytes": "20"
            },
            "t_contract(ICCIPBridge)9584": {
                "encoding": "inplace",
                "label": "contract ICCIPBridge",
                "numberOfBytes": "20"
            },
            "t_contract(IDappStakingManager)9686": {
                "encoding": "inplace",
                "label": "contract IDappStakingManager",
                "numberOfBytes": "20"
            },
            "t_contract(IERC20)2977": {
                "encoding": "inplace",
                "label": "contract IERC20",
                "numberOfBytes": "20"
            },
            "t_contract(ISTASTRWrapper)9725": {
                "encoding": "inplace",
                "label": "contract ISTASTRWrapper",
                "numberOfBytes": "20"
            },
            "t_mapping(t_address,t_mapping(t_uint256,t_uint256))": {
                "encoding": "mapping",
                "key": "t_address",
                "label": "mapping(address => mapping(uint256 => uint256))",
                "numberOfBytes": "32",
                "value": "t_mapping(t_uint256,t_uint256)"
            },
            "t_mapping(t_address,t_uint256)": {
                "encoding": "mapping",
                "key": "t_address",
                "label": "mapping(address => uint256)",
                "numberOfBytes": "32",
                "value": "t_uint256"
            },
            "t_mapping(t_uint256,t_uint256)": {
                "encoding": "mapping",
                "key": "t_uint256",
                "label": "mapping(uint256 => uint256)",
                "numberOfBytes": "32",
                "value": "t_uint256"
            },
            "t_struct(L2CCIP)7383_storage": {
                "encoding": "inplace",
                "label": "struct Vault.L2CCIP",
                "members": [
                    {
                        "astId": 7370,
                        "contract": "contracts/core/Vault.sol:Vault",
                        "label": "chainSelector",
                        "offset": 0,
                        "slot": "0",
                        "type": "t_uint64"
                    },
                    {
                        "astId": 7372,
                        "contract": "contracts/core/Vault.sol:Vault",
                        "label": "router",
                        "offset": 8,
                        "slot": "0",
                        "type": "t_address"
                    },
                    {
                        "astId": 7374,
                        "contract": "contracts/core/Vault.sol:Vault",
                        "label": "rmn",
                        "offset": 0,
                        "slot": "1",
                        "type": "t_address"
                    },
                    {
                        "astId": 7376,
                        "contract": "contracts/core/Vault.sol:Vault",
                        "label": "tokenAdminRegistry",
                        "offset": 0,
                        "slot": "2",
                        "type": "t_address"
                    },
                    {
                        "astId": 7378,
                        "contract": "contracts/core/Vault.sol:Vault",
                        "label": "registryModuleOwner",
                        "offset": 0,
                        "slot": "3",
                        "type": "t_address"
                    },
                    {
                        "astId": 7380,
                        "contract": "contracts/core/Vault.sol:Vault",
                        "label": "link",
                        "offset": 0,
                        "slot": "4",
                        "type": "t_address"
                    },
                    {
                        "astId": 7382,
                        "contract": "contracts/core/Vault.sol:Vault",
                        "label": "wastr",
                        "offset": 0,
                        "slot": "5",
                        "type": "t_address"
                    }
                ],
                "numberOfBytes": "192"
            },
            "t_uint256": {
                "encoding": "inplace",
                "label": "uint256",
                "numberOfBytes": "32"
            },
            "t_uint64": {
                "encoding": "inplace",
                "label": "uint64",
                "numberOfBytes": "8"
            }
        }
    }
}